:020000040800F2
:10000000B01A00200D020008650900086B06000800
:1000100061090008550300082B1D000800000000BE
:10002000000000000000000000000000750D000846
:10003000CD030008000000007F0B0008890E0008B7
:1000400027020008270200082702000827020008EC
:1000500027020008270200082702000827020008DC
:1000600027020008270200082702000827020008CC
:1000700027020008270200082702000827020008BC
:1000800027020008270200082702000827020008AC
:10009000270200082702000827020008270200089C
:1000A000270200082702000827020008270200088C
:1000B000751200082702000827020008270200081E
:1000C000270200082702000827020008270200086C
:1000D00027020008FD170008270200082702000871
:1000E000270200082702000827020008270200084C
:1000F000270200082702000827020008270200083C
:10010000270200082702000827020008270200082B
:10011000270200082702000827020008270200081B
:10012000270200082702000827020008270200080B
:1001300000F002F800F05AF80AA090E8000C82449F
:100140008344AAF10107DA4501D100F04FF8AFF27C
:10015000090EBAE80F0013F0010F18BFFB1A43F0A5
:1001600001031847FC7400001C7500000A444FF09E
:10017000000C10F8013B13F0070408BF10F8014B06
:100180001D1108BF10F8015B641E05D010F8016B4B
:10019000641E01F8016BF9D113F0080F1EBF10F8AF
:1001A000014BAD1C0C1B09D16D1E58BF01F801CBD2
:1001B000FAD505E014F8016B01F8016B6D1EF9D555
:1001C0009142D6D37047000000230024002500266A
:1001D000103A28BF78C1FBD8520728BF30C148BFAA
:1001E0000B6070471FB51FBD10B510BD00F06EF855
:1001F0001146FFF7F7FF02F0FDF800F0A0F803B496
:10020000FFF7F2FF03BC01F0A0FD000009488047A2
:1002100009480047FEE7FEE7FEE7FEE7FEE7FEE7E8
:10022000FEE7FEE7FEE7FEE704480549054A064B00
:10023000704700008D0E000831010008B014002046
:10024000B01A0020B0160020B01600207047000041
:100250000FB4044910B503AA029800F009F810BCC5
:100260005DF814FB18000020704770477047704716
:10027000074B70B50D467B4400F011F80446284644
:1002800000F020F810B14FF0FF3070BD204670BD77
:10029000B31D000001694A1C02610878704700B56F
:1002A0008FB0CDE901310021059105497944CDE9AF
:1002B00003101146684600F02EF80FB000BD000094
:1002C000E5FFFFFF007B00F080007047754600F0FF
:1002D0003DF8AE4605006946534620F007008546C6
:1002E00018B020B5FFF7A0FFBDE820404FF0000692
:1002F0004FF000074FF000084FF0000B21F007010E
:10030000AC46ACE8C009ACE8C009ACE8C009ACE850
:10031000C0098D4670472DE9F04106460024D6E914
:100320000170F5688046304603E04146B847641CDA
:100330003046A8470028F8D12046BDE8F0810446A1
:10034000AFF300802046FFF75AFF000000487047D7
:100350004C14002000BFFEE770B504460D46294648
:10036000034801F0C7F92146014801F0C5F970BD05
:100370000008004010B51448006830B91248001D4C
:100380000068012801D101F0B1FD0F480068012883
:1003900005D10D48001D006808B901F089FD0A4823
:1003A000006828B90848001D006808B901F06AFD16
:1003B00005480068012806D10348001D006801288F
:1003C00001D101F0B1FD10BD38012242704700009B
:1003D00030B587B005460C460121022000F0D0FB65
:1003E0000121042000F0ECFBC020ADF8180004202F
:1003F0008DF81B0006A9134800F0A8F8ADF81050BE
:10040000ADF80C400020ADF81200ADF80E0003A9C5
:100410000D4801F0A1F900231A4603210A4801F012
:1004200009F8684601F092F80A20ADF8080069461C
:10043000054801F035F80121034800F0E0FF07B05E
:1004400030BD0000000801400004004008B5012153
:100450001C2000F0B5FB0120ADF8000010208DF845
:10046000030003208DF802004FF48071204800F053
:10047000F8F869461E4800F069F80220ADF800005F
:1004800010208DF803004101194800F0EAF8694690
:10049000174800F05BF82020ADF8000010208DF820
:1004A00003002021124800F0DCF86946104800F0F3
:1004B0004DF84FF48050ADF8000010208DF8030087
:1004C00001020C4800F0CDF869460A4800F03EF8F9
:1004D0004FF40050ADF8000010208DF803004102E9
:1004E000054800F0C0F86946034800F02FF808BD41
:1004F000000C0140000801400010014008B5012136
:10050000102000F05DFB4FF48040ADF80000482063
:100510008DF803004FF480410B4800F0A2F86946C3
:10052000094800F013F84FF40040ADF800004820EF
:100530008DF803004FF40041034800F092F869463B
:10054000014800F003F808BD001001402DE9F0411A
:10055000024600250026002000230024002791F8F1
:1005600003C00CF00F0591F803C00CF0100CBCF1A7
:10057000000F03D091F802C04CEA050591F800C0C5
:10058000BCF1000F31D0146800202BE04FF0010CBB
:100590000CFA00F3B1F800C00CEA03069E4220D129
:1005A00083004FF00F0C0CFA03F7BC4305FA03FC71
:1005B0004CEA040491F803C0BCF1280F06D14FF0B7
:1005C000010C0CFA00FCC2F814C00AE091F803C058
:1005D000BCF1480F05D14FF0010C0CFA00FCC2F839
:1005E00010C0401C0828D1D31460B1F800C0BCF181
:1005F000FF0F34DD546800202EE000F1080C4FF0AE
:10060000010808FA0CF3B1F800C00CEA03069E4298
:1006100021D183004FF00F0C0CFA03F7BC4305FA0D
:1006200003FC4CEA040491F803C0BCF1280F05D187
:1006300000F1080C08FA0CF8C2F8148091F803C015
:10064000BCF1480F07D100F1080C4FF0010808FA7F
:100650000CF8C2F81080401C0828CED35460BDE8C6
:10066000F081416170470161704700BFFEE770B5DE
:1006700002460024002500230020958A138B1B04CA
:1006800045EA030626F07F4404EA01068E4201D1C2
:10069000012000E0002070BD21B1028842F001027B
:1006A000028004E002884FF6FE731A400280704711
:1006B00000B585B00121880500F062FA012108200B
:1006C00000F07EFA4FF44060ADF8000003208DF892
:1006D00002001C208DF8030069461148FFF736FF21
:1006E000104800F023F80020ADF808004BF6FF702A
:1006F000ADF80A003020ADF80C004FF48060ADF882
:100700000E000001ADF810000748019001210548D6
:10071000FFF7C2FF01A9034800F05AF805B000BD79
:10072000000C014000580040801A060010B5044635
:100730000B48844209D10121480500F031FA00211B
:100740004FF4001000F02CFA08E00121880500F0B9
:1007500027FA00214FF4800000F022FA10BD0000BB
:100760000054004021B1028842F48072028004E00B
:1007700002884FF6FF631A400280704721B1028859
:1007800042F40072028004E002884FF6FF531A40E0
:10079000028070470CB502460020002301930093AD
:1007A00000920B0F019321F07F41019B1BB1009B35
:1007B0001433009303E0090C009B18330093009B53
:1007C0001B680B400BB1012000E000200CBD0000B5
:1007D0002DE9F04385B004460D460026B1460427B6
:1007E000DFF8CC80A6884FF6C0700640684600F05F
:1007F000F7F9DDF808802F48B8FBF0F01FFA80F910
:1008000046EA0906A68020884FF6FE71084020803F
:1008100000262949286888420CD828684000B8FB7F
:10082000F0F087B2042F00DA04273E4309F10100FB
:10083000208427E0E8884BF6FF71884206D12868BB
:1008400000EB4000B8FBF0F087B209E0286800EB4D
:10085000C00101EB0010B8FBF0F087B247F480470D
:10086000C7F30B0008B947F0010747F400400643FF
:100870004FF4967009FB00F04FF47A7190FBF1F0A1
:10088000401C2084A683208840F001002080268818
:100890004FF6F5300640A88869890843064326804C
:1008A000A88929890843208105B0BDE8F0830000AC
:1008B00000127A0040420F00A086010012B141F000
:1008C000010102E04FF6FE73194001827047018278
:1008D0007047000070B504460D4600BF4FF400316C
:1008E0001C48FFF757FF0028F8D101211948FFF7EE
:1008F00039FF00BF18491748FFF7B9FE0028F9D0A3
:10090000002278211348FFF7D9FF00BF134911488F
:10091000FFF7ADFE0028F9D021460E48FFF7D7FFBC
:1009200000BF0E49891C0B48FFF7A1FE0028F8D034
:1009300029460848FFF7CBFF00BF0849891C054836
:10094000FFF795FE0028F8D001210248FFF716FFB7
:1009500070BD000000580040010003008200070045
:1009600000BFFEE77047000070B5002100230F2292
:10097000C47804B3154C246804F4E064C4F5E0645E
:10098000210AC1F10403CA40447804FA03F18478CF
:100990001440214309010E4C0678A155047804F057
:1009A0001F050124AC4005786D11AD0005F1E0256F
:1009B000C5F8004109E0047804F01F050124AC40AB
:1009C000044D0678761145F8264070BD0CED00E028
:1009D00000E400E080E100E002490143024A1160C6
:1009E000704700000000FA050CED00E010B5002093
:1009F00000F03BF810BD2DE9F05F06460F4690462B
:100A00001C46DDF828A04FF0000BE11704EB5171F4
:100A1000C910A4EBC10131B92046E11704EB5171B3
:100A2000C1F3C70506E02046E11704EB5171C91078
:100A3000491CCDB23D4614E02946202000F08BF839
:100A4000B1460AE059460BF1010B1AF8010001F01A
:100A500075F909F1010000F0FF09C145F2DB681CDE
:100A6000C5B2A542E8DBBDE8F09F70B5064600249C
:100A700015E004F1B001C8B201F059F9002001F00D
:100A800056F9102001F053F9002504E0304601F03A
:100A900055F9681CC5B2802DF8DB601CC4B2082C67
:100AA000E7DB70BD10B5642001F074FAAE2001F0F0
:100AB0003EF9202001F03BF9102001F038F9B02078
:100AC00001F035F9C82001F032F9002001F02FF9CA
:100AD000102001F02CF9402001F029F9812001F0CB
:100AE00026F9FF2001F023F9A12001F020F9A6202A
:100AF00001F01DF9A82001F01AF93F2001F017F9C3
:100B0000A42001F014F9D32001F011F9002001F024
:100B10000EF9D52001F00BF9F02001F008F9D920E9
:100B200001F005F9222001F002F9DA2001F0FFF8C6
:100B3000122001F0FCF8DB2001F0F9F8202001F090
:100B4000F6F88D2001F0F3F8142001F0F0F8AF2052
:100B500001F0EDF810BD70B504460D4605F1B00189
:100B6000C8B201F0E4F8102141EA141001F0DFF8F6
:100B700004F00F0141F0010001F0D9F870BD704799
:100B800029B1064AD2690243044BDA6104E0034A00
:100B9000D2698243014BDA617047000000100240C5
:100BA00029B1064A12690243044B1A6104E0034A60
:100BB00012698243014B1A61704700000010024025
:100BC00029B1064A92690243044B9A6104E0034A40
:100BD00092698243014B9A61704700000010024005
:100BE00030B500210022002400232D4D6D6805F052
:100BF0000C0121B1042905D0082923D105E0294D94
:100C0000056022E0274D05601FE0254D6D6805F465
:100C10007012234D6D6805F48034022505EB924275
:100C20001CB9214D554305600BE01D4D6D6805F461
:100C300000351DB11C4D5543056002E0194D55436B
:100C4000056002E0174D056000BF00BF144D6D68E0
:100C500005F0F0010909154D6B5C0568DD40456044
:100C60000F4D6D6805F4E061090A104D6B5C456835
:100C7000DD4085600A4D6D6805F46051C90A0B4D71
:100C80006B5C4568DD40C560054D6D6805F440410D
:100C9000890B074D6B5CC568B5FBF3F5056130BD8D
:100CA0000010024000127A0000093D0028000020D8
:100CB000380000202DE9F05F1348007800F0800034
:100CC00000B31148007800F03F0A4FEA0A4A0F4883
:100CD00000888244504601F0AEFD80460C4A0D4B20
:100CE00001F0C0FD064600224FF0804301F01CFCDD
:100CF000044601F071FD8346002003490870584600
:100D0000BDE8F09F0020FBE73C1400203E140020CB
:100D10009CC420B07268A13F08B501210420FFF7F0
:100D20004FFF0420ADF8000010208DF803000320D1
:100D30008DF8020069460448FFF708FC04210248C8
:100D4000FFF791FC08BD00000008014010B5C82065
:100D500001F020F90020054908600A2001F040F95F
:100D600001200349C1F8880110BD0000880121421B
:100D700000002142704710B500F002F810BD0000DD
:100D80000CB50020019000903348006840F480309A
:100D90003149086000BF3048006800F4003000901E
:100DA0000198401C0190009818B90198B0F5A06F07
:100DB000F1D12948006800F4003010B10120009002
:100DC00001E0002000900098012843D123480068EA
:100DD00040F01000214908600846006820F0030038
:100DE00008600846006840F0020008601A48406841
:100DF000194948600846406848600846406840F421
:100E0000806048600846406820F47C1048600846CE
:100E1000406840F4E81048600846006840F0807080
:100E2000086000BF0C48006800F000700028F9D08E
:100E30000948406820F003000749486008464068B8
:100E400040F00200486000BF0348406800F00C001A
:100E50000828F9D10CBD000000100240002002401B
:100E6000042808D14FF0E021096941F004014FF056
:100E7000E022116107E04FF0E021096921F004014F
:100E80004FF0E022116170477047000010B5134821
:100E9000006840F0010011490860084640681049A8
:100EA00008400E494860084600680E4908400B4952
:100EB00008600846006820F4802008600846406802
:100EC00020F4FE0048604FF41F008860FFF753FFD6
:100ED0004FF000600449086010BD0000001002409F
:100EE0000000FFF8FFFFF6FE08ED00E0F0B50C464D
:100EF000154600220021068C4FF6FE773E40068400
:100F0000028B018C4FF60C7632407E1C06EA0316EB
:100F10002E433243104EB0420ED0104EB0420BD092
:100F2000B0F1804F08D00E4EB04205D00D4EB04209
:100F300002D00D4EB04206D14FF6FD76314044F05E
:100F40000106314305E04FF6F576314044F00106E5
:100F5000314302830184F0BD002C01400034014084
:100F60000004004000080040000C0040F0B50C46B2
:100F70001546002200210026078C4FF6EF7C07EA79
:100F80000C070784028B018C4FF6FF7707EA0416E3
:100F900040F6FF473A404FF6FF7707EA03373A43F8
:100FA0004FF6FF7707EA05273A43114FB8420ED0B4
:100FB000104FB8420BD0B0F1804F08D00E4FB8425E
:100FC00005D00E4FB84202D00D4FB84206D14FF6B1
:100FD000DF77394046F01007394305E04FF65F7779
:100FE000394044F01007394302830184F0BD00000A
:100FF000002C014000340140000400400008004083
:10100000000C0040F0B50C461546002200210026D9
:10101000078C4FF6FF6C07EA0C070784828B018C64
:101020004FF6FF7707EA04264FF60C773A404FF663
:10103000FF7707EA03172F433A43114FB8420ED008
:10104000104FB8420BD0B0F1804F08D00E4FB842CD
:1010500005D00E4FB84202D00D4FB84206D14FF620
:10106000FF57394046F48077394305E04FF2FF5788
:10107000394044F48077394382830184F0BD000015
:10108000002C0140003401400004004000080040F2
:10109000000C0040F0B50C46154600220021002649
:1010A000078C4EF6FF7C07EA0C070784828B018CC5
:1010B0004FF6FF7707EA043640F6FF473A404FF60F
:1010C000FF7707EA05273A434FF6FF7707EA03372A
:1010D0003A43114FB8420ED0104FB8420BD0B0F186
:1010E000804F08D00E4FB84205D00E4FB84202D004
:1010F0000D4FB84206D14DF6FF77394046F4805780
:10110000394305E047F6FF57394044F480573943E7
:1011100082830184F0BD0000002C014000340140B6
:101120000004004000080040000C004030B589B0C9
:1011300005460C460121C802FFF742FD01210820A7
:10114000FFF73EFD4FF48070ADF8140018208DF8C5
:10115000170003208DF8160005A91A48FFF7F6F9C5
:1011600000208DF82000ADF81C50ADF81840ADF807
:101170001E00ADF81A0006A9134800F0EDFA702021
:10118000ADF804000120ADF806000020ADF80A001B
:101190000220ADF80C0001A90B4800F0E9F9082184
:1011A000094800F031FA0121074800F019F901213E
:1011B000054800F030F90121034800F020F909B09A
:1011C00030BD000000080140002C014030B585B062
:1011D00005460C4601210846FFF7D2FC01210420F8
:1011E000FFF7EEFC0220ADF8100028208DF8130068
:1011F00004A91E48FFF7AAF902211C48FFF731FA9B
:10120000ADF80850ADF804400020ADF80A00ADF884
:10121000060001A94FF0804000F09EFA0420144916
:10122000088000204880012088800020C880088134
:101230004FF0804000F034F91C208DF800000220AF
:101240008DF8010000208DF8020001208DF80300C8
:101250006846FFF789FB01220521880700F07FF926
:101260000121880700F0CBF805B030BD000801402F
:101270004014002010B52D48007800F080000028B0
:101280004FD10121880700F0F9F8D0B12748007844
:1012900000F04000A8B12548007800F03F003F284A
:1012A0000AD12248007840F08000204908704FF6AB
:1012B000FF701F49088004E01C480078401C1B494F
:1012C00008700421080700F0D9F850B317480078D7
:1012D00000F0400088B11548007840F080001349C4
:1012E00008704FF0804000F0C6F8114908800021D6
:1012F0004FF0804000F0E4F913E000200B49087043
:101300000B49088000214FF0804000F0F7F90748B2
:10131000007840F04000054908700221480700F0BD
:10132000CFF90521880700F067F810BD3C140020B4
:101330003E14002030B589B005460C46012104203A
:10134000FFF71EFC01210820FFF73AFC4020ADF812
:10135000200018208DF8230003208DF8220008A912
:101360001D48FFF7F3F88020ADF8200018208DF815
:10137000230003208DF8220008A91748FFF7E6F89C
:10138000ADF81850ADF814400020ADF81A00ADF8D3
:10139000160005A9114800F0DFF97020ADF804002F
:1013A0000120ADF806000020ADF80C0001A90B48A3
:1013B00000F0DEF80821094800F026F901A90748E5
:1013C00000F02CF90821054800F087F901210348B5
:1013D00000F015F809B030BD000C014000080040D5
:1013E00021B1028842F08002028004E002884FF6B8
:1013F0007F731A4002807047CA430282704721B14E
:10140000028842F00102028004E002884FF6FE7377
:101410001A400280704731B1B0F8442042F40042D3
:10142000A0F8442005E0B0F84420C2F30E02A0F872
:1014300044207047F0B50C4615461E460021002298
:1014400000230189028B038C4FF6F8773940214342
:101450004FF6FC473A4040F201173A434FF6DD772A
:101460003B404FF6FF7707EA06172F433B430181C6
:1014700002830384F0BD0146088F704730B50246F1
:10148000002000230024158A05EA0103958905EA56
:10149000010413B10CB1012000E0002030BD0000B8
:1014A00070B505460C46244885420ED02348854237
:1014B0000BD0B5F1804F08D02148854205D0214896
:1014C000854202D02048854200D100E000BF20883C
:1014D00050B92389A28861882846FFF707FDE18873
:1014E000284600F00DF925E0208804280AD1238938
:1014F000A28861882846FFF739FDE188284600F078
:1015000008F917E0208808280AD12389A288618871
:101510002846FFF777FDE188284600F007F909E043
:101520002389A28861882846FFF7B4FDE188284610
:1015300000F005F970BD0000002C014000340140AE
:101540000004004000080040000C00400021018021
:101550004180012181800021C180018170471AB141
:1015600083890B43838102E083898B4383817047A6
:1015700070B5002400220023058C4FF6FE7635401E
:101580000584028C8388048B4FF68F752C40B51E22
:101590002C400D882C43751E2A400D892A434D8806
:1015A0002A43144DA8420BD0134DA84208D0134D26
:1015B000A84205D0124DA84202D0124DA84213D124
:1015C0004FF6F7752A404D892A434FF6FB752A409E
:1015D0008D882A434FF6FF652B404FF6FF552B4071
:1015E0008D892B43CD892B4383800483CD888586C9
:1015F000028470BD002C01400034014000400140D5
:1016000000440140004801400A460021018B4FF68A
:10161000F7731940114301837047000070B500242F
:1016200000220023058C4FF6EF7635400584028CAE
:101630008388048B48F6FF752C404FF6FF452C40FD
:101640000D884FF6FF7606EA05252C434FF6DF7529
:101650002A400D8906EA05152A434D8806EA051534
:101660002A43154DA84202D0144DA8421DD14FF671
:101670007F752A404D894FF6FF7606EA05152A4305
:101680004FF6BF752A408D8806EA05152A434FF6A6
:10169000FF352B404FF2FF752B408D8906EA8505FB
:1016A0002B43CD8906EA85052B4383800483CD88AF
:1016B0000587028470BD0000002C01400034014009
:1016C0000A460021018C4FF6DF7319404FF6FF7375
:1016D00003EA02131943018470470A460021018B73
:1016E0004FF2FF7319404FF6FF7303EA02231943C9
:1016F00001837047818670470187704781847047F6
:10170000028B4FF6F3731A400283028B0A43028363
:101710007047028B4FF2FF331A400283028B4FF661
:10172000FF7303EA01231A4302837047828B4FF64B
:10173000F3731A408283828B0A4382837047828BC1
:101740004FF2FF331A408283828B4FF6FF7303EA16
:1017500001231A4382837047002202881D4B98425E
:101760000ED01D4B98420BD0B0F1804F08D01B4BD0
:10177000984205D01A4B984202D01A4B984204D195
:101780004FF68F731A404B881A43174B984207D075
:10179000164B984204D04FF6FF431A40CB881A43A9
:1017A00002808B8883850B8803850A4B98420BD077
:1017B000094B984208D00E4B984205D00D4B9842E9
:1017C00002D00D4B984201D10B7A0386012383820C
:1017D00070470000002C014000340140000400402C
:1017E00000080040000C00400010004000140040C1
:1017F0000040014000440140004801402DE9F04113
:1018000040F22551D24800F0CFF9002876D0D048D8
:1018100000F086FAC7B200F09BFBA7F141000B284D
:1018200014D2DFE800F05037F8DFF7F60614D920BD
:101830002C00C8480088283881B2C6480088FEF7C6
:101840008BFD00F01FFB0120C34908807DE1C148EA
:10185000018840F68C20FEF77FFD00F013FB02208C
:10186000BD49088071E140F68C21BA480088FEF736
:1018700073FD00F007FB0320B749088065E1B54818
:1018800001880088FEF768FD00F0E6FA0420B249FE
:1018900008805AE14FF4026140F63400FEF75CFD27
:1018A000642000F077FBFFF7A1F809E0FEF762FD86
:1018B000A74800F035FA492802D100F035FB00E0D6
:1018C000F4E700BF41E10024002521264B21A34875
:1018D000FFF710FF4FF416610846FEF73DFDFFF7D6
:1018E00085F876E0FFF732FA642000F053FBFFF74B
:1018F000E1F9B04203DD00F0C5FA5EE026E100F058
:1019000013FB2B219548FFF7F5FE4FF4AF7000F065
:1019100041FBFFF71BFA642000F03CFBFFF7CAF91C
:101920000546642000F036FB62218C48FFF7E2FE9A
:101930004FF4AF7000F02EFBFFF708FA642000F0C0
:1019400029FBFFF7B7F904464B218448FFF7D2FE85
:10195000A5420ADAB44208DD00F0AAFA40F2622099
:1019600000F018FB00F0E0FA27E0A5420ADDB542DE
:1019700008DD00F0BBFA40F2622000F00BFB00F043
:10198000D3FA1AE000F068FA40F2622000F002FB9D
:1019900000F0CAFAA54208DA00F08AFA4FF40270A1
:1019A00000F0F8FA00F0C0FA07E000F09FFA4FF4F8
:1019B000027000F0EFFA00F0B7FA654800F0B0F9F5
:1019C000492806D14B216548FFF794FE00F0ACFA98
:1019D00000E087E700BFB8E000F0A6FA00205E490B
:1019E0000880B2E05B480088002836DD594800884E
:1019F0006438584908805AA0FEF72AFC56480088E7
:101A0000012809D0022810D0032815D0042823D19A
:101A100019E095E028E06BE04E480088503081B234
:101A20004C480088FEF798FC16E04A48018840F6CA
:101A30008C20FEF791FC0FE040F68C214548008891
:101A4000FEF78AFC08E043480088503081B24148E4
:101A50000088FEF781FC00BF00BF3E48008810B937
:101A600042A0FEF7F5FB70E03A48008840F6C4114A
:101A7000884233DA374800886430364908803EA00F
:101A8000FEF7E6FB34480088012806D002280DD076
:101A9000032812D0042820D116E02E4800885030A8
:101AA00081B22C480088FEF757FC16E029480188CF
:101AB00040F68C20FEF750FC0FE040F68C212548C4
:101AC0000088FEF749FC08E022480088503081B2C7
:101AD00020480088FEF740FC00BF00BF1D4800887A
:101AE00040F6C411884202D126A0FEF7B1FB2CE0DB
:101AF00000244FF416610846FEF72EFC1DE0FFF7A8
:101B000025F9642000F046FAFFF7D4F884B2192CC6
:101B100004DA052C02DD00F007FA06E0052C02DAF3
:101B200000F09AF901E000F0ADF9094800F0F8F88A
:101B3000492802D100F0F8F900E0E0E700BF04E036
:101B400000F006F9FEF752FF00BF00BFBDE8F081CC
:101B5000003801402400002026000020002C014015
:101B60007370656564205550000000005370656512
:101B700064204D4158000000737065656420444F37
:101B8000574E00005370656564204D494E000000BB
:101B900021B1828942F40052828104E082894DF6AB
:101BA000FF731A408281704770B5024600240023FB
:101BB0000025002040F66A16B14200D100BFC1F3F3
:101BC000421501F01F03012606FA03F3012D02D18D
:101BD0009689334006E0022D02D1168A334001E097
:101BE000968A33400C12012606FA04F41688344013
:101BF00013B10CB1012000E0002070BDF0B5034628
:101C0000002400260025002040F66A17B94200D1C2
:101C100000BF1846C1F3421401F01F06012707FA5E
:101C200006F5012C01D10C3004E0022C01D110305A
:101C300000E014301AB107682F43076002E007681C
:101C4000AF430760F0BD00002DE9F04786B00546C0
:101C50000E460024A24600BFA1460027B08900B16D
:101C600000BF2F462C8A4CF6FF700440F0880443D6
:101C70002C82AC894EF6F3100440B08831890843B9
:101C8000718908430443AC81AC8A4FF6FF4004409D
:101C9000B0890443AC8201A8FEF7A2FF1F48874227
:101CA00002D1DDF810A001E0DDF80CA0A88900F455
:101CB000004040B10AEBCA0000EB0A10316849004D
:101CC000B0FBF1F807E00AEBCA0000EB0A1031683C
:101CD0008900B0FBF1F86420B8FBF0F004012009A2
:101CE000642101FB1089A88900F4004040B1322032
:101CF00000EBC900B0FBF1F000F00700044308E07E
:101D0000322000EB09106421B0FBF1F000F00F006D
:101D100004432C8106B0BDE8F08700000038014084
:101D200001468888C0F30800704700BFFEE710B581
:101D3000044621460020FEF7CDFD10BD10B5044637
:101D400021464020FEF7C6FD10BD00BF70470000D1
:101D500038B5002468E0B42000F01CF90B2C61D2E7
:101D6000DFE804F060060F18212A333C454E570087
:101D70002F4808234022002100900846FEF73BFE32
:101D800050E02C4808234022002100900846FEF72E
:101D900032FE47E0284808234022002100900846F0
:101DA000FEF729FE3EE0254808234022002100904E
:101DB0000846FEF720FE35E0214808234022002196
:101DC00000900846FEF717FE2CE01E48082340222C
:101DD000002100900846FEF70EFE23E01A48082373
:101DE0004022002100900846FEF705FE1AE0174841
:101DF00008234022002100900846FEF7FCFD11E078
:101E0000134808234022002100900846FEF7F3FD06
:101E100008E0104808234022002100900846FEF701
:101E2000EAFD00BF00BF641C0A2C94DB38BD000033
:101E30003C0A00203C0C00203C0000203C0E00200E
:101E40003C0200203C1200203C0400203C100020FA
:101E50003C0600203C0800200120074908600020C3
:101E60000649C1F88401044914310860012004497D
:101E7000C1F8B001704700008081214200802142FA
:101E80000000214200200749086001200649C1F8EE
:101E9000840104491431086000200449C1F8B001EC
:101EA00070470000808121420080214200002142D1
:101EB00010B501200949086000200949C1F88401D2
:101EC000012006491431086000200649C1F8B0011C
:101ED00040F2DC510448FFF70DFC10BD8081214227
:101EE00000802142000021420004004010B5002083
:101EF0000949086001200949C1F884010020064908
:101F00001431086001200649C1F8B00140F2DC51EB
:101F10000448FFF7F1FB10BD80812142008021427F
:101F200000002142000400400020064908600649E4
:101F3000C1F884010349143108600449C1F8B001B3
:101F40007047000080812142008021420000214230
:101F500010B56FF00400FEF783FF0A4800680A49D5
:101F6000B0FBF1F0094908700846007800EB400129
:101F7000C1EBC0104FF6FF7101EAC00004490880B0
:101F800010BD00000000002000127A0014000020A4
:101F9000160000200146114A12884A434FF0E02300
:101FA0005A6100229A611A46126942F001021A61CE
:101FB00000BF4FF0E022106900F001021AB100F4F6
:101FC0008032002AF5D04FF0E022126922F001029F
:101FD0004FF0E0231A6100229A617047160000203A
:101FE0000146114A12784A434FF0E0235A61002219
:101FF0009A611A46126942F001021A6100BF4FF05D
:10200000E022106900F001021AB100F48032002AC7
:10201000F5D04FF0E022126922F001024FF0E023E8
:102020001A6100229A6170471400002000BF054A1F
:10203000128802F04002002AF9D0C2B2014B1B1DE7
:102040001A8070470038014038B5002481E1BE2075
:10205000FFF7A0FF272C1DD2DFE804F01C141D267B
:102060002F38414A535C656E778089929BA4ADB648
:10207000BFC8D1DAF2FBEFEEEDECEBEAE9E8E7E618
:10208000E5E4E300B548082340220021009008461B
:10209000FEF7B1FC5BE1B24808234022002100902A
:1020A0000846FEF7A8FC52E1AE4808234022002172
:1020B00000900846FEF79FFC49E1AB480823402208
:1020C000002100900846FEF796FC40E1A74808234F
:1020D0004022002100900846FEF78DFC37E1A4481D
:1020E00008234022002100900846FEF784FC2EE1E0
:1020F000A04808234022002100900846FEF77BFC00
:1021000025E19D4808234022002100900846FEF763
:1021100072FC1CE1994808234022002100900846E7
:10212000FEF769FC13E19648082340220021009045
:102130000846FEF760FC0AE192480823402200218D
:1021400000900846FEF757FC01E18F480823402223
:10215000002100900846FEF74EFCF8E08B4808236B
:102160004022002100900846FEF745FCEFE0884839
:1021700008234022002100900846FEF73CFCE6E0E0
:10218000844808234022002100900846FEF733FCD3
:10219000DDE0814808234022002100900846FEF738
:1021A0002AFCD4E07D480823402200210090084604
:1021B000FEF721FCCBE07A48082340220021009062
:1021C0000846FEF718FCC2E07648082340220021AA
:1021D00000900846FEF70FFCB9E073480823402240
:1021E000002100900846FEF706FCB0E06F48082387
:1021F0004022002100900846FEF7FDFBA7E06C4856
:1022000008234022002100900846FEF7F4FB9EE0E0
:10221000684808234022002100900846FEF7EBFBA7
:1022200095E08BE081E077E06DE063E059E04FE01E
:1022300045E03BE031E027E01DE013E009E0FFE787
:102240005D4808234022002100900846FEF7D3FB9A
:102250007DE05A4808234022002100900846FEF7FE
:10226000CAFB74E05648082340220021009008462B
:10227000FEF7C1FB6BE05348082340220021009089
:102280000846FEF7B8FB62E04F48082340220021D1
:1022900000900846FEF7AFFB59E04C480823402267
:1022A000002100900846FEF7A6FB50E048480823AE
:1022B0004022002100900846FEF79DFB47E045487C
:1022C00008234022002100900846FEF794FB3EE0E0
:1022D000414808234022002100900846FEF78BFB6E
:1022E00035E03E4808234022002100900846FEF7D2
:1022F00082FB2CE03A480823402200210090084647
:10230000FEF779FB23E037480823402200210090A4
:102310000846FEF770FB1AE03348082340220021EC
:1023200000900846FEF767FB11E030480823402282
:10233000002100900846FEF75EFB08E02C480823C9
:102340004022002100900846FEF755FB00BF00BF69
:10235000641C272CFFF67BAE38BD0000602A000805
:10236000602C0008602E0008603000086032000811
:10237000603400086036000860380008603A0008E1
:10238000603C0008603E00086040000860420008B1
:10239000604400086046000860480008604A000881
:1023A000604C0008604E0008605000086052000851
:1023B000605400086056000860580008605A000821
:1023C000605C0008605E00086060000860620008F1
:1023D000606400086066000860680008606A0008C1
:1023E000606C0008606E0008607000086072000891
:1023F00060740008FFF7ACFD4FF4A060FEF7ECFA44
:102400004FF4165000F030F8FEF720F8FEF784FC89
:10241000002141F61F40FEF78DFFFEF76FF8002107
:102420004FF6FF70FDF7D4FF40F29F5140F2E730C6
:10243000FEF77CFE47214FF6FF70FEF7C7FE4B21EB
:102440000848FFF757F9FEF733F9FEF72BFBFEF7C5
:10245000CDFAFFF77DFCFEF7C9FA01E0FFF7F4FDC6
:10246000FCE70000002C014010B586B004460121B5
:1024700044F20400FEF7A4FB4FF40070ADF8140022
:1024800003208DF8160018208DF8170005A92448A0
:10249000FEF75CF84FF48060ADF8140004208DF86E
:1024A000170005A91E48FEF751F825208DF80000F9
:1024B00003208DF801008DF8020001208DF8030043
:1024C0006846FEF751FA26208DF8000003208DF8AB
:1024D000010004208DF8020001208DF803006846F9
:1024E000FEF742FA01940020ADF80800ADF80A00AA
:1024F000ADF80C00ADF810000C20ADF80E0001A9ED
:102500000848FFF7A1FB012240F225510548FFF7DB
:1025100075FB01210348FFF73BFB06B010BD00002F
:1025200000080140003801402DE9C04130B4DFF817
:10253000A0C23CEA111418BF3CEA131400F0EC806E
:1025400081EA03051CEA111444EAD57418BF1CEA99
:10255000131500F0C780A4EB05044FF0004545EAD1
:10256000C12145EAC32341EA505143EA525304F1E1
:102570007F74994204F500344FEAC0204FEAC2222A
:1025800008BF904200F09C804FEA13650FF240169E
:10259000765D4FEA134506FB05F7C7F1807706FB2A
:1025A00007F74FEAD737A7FB03687642C8F58038AC
:1025B000A7FB06CE38BFA8F1010807FB08E64FF0DD
:1025C000000EA6FB028CE6FB03CEDCF1000CCEF184
:1025D000004E38BFAEF1010EA6FB0C584FF00007BD
:1025E0004FF00005E6FB0E87A1FB08C6A0FB07CE57
:1025F00016EB0E0645F10005E1FB076515F1E04E0F
:102600007EBFA4F580345FEA46066D4116F180076F
:1026100045F100054FEA17274FEA066647EA0567C6
:10262000A6F1DE46B6F1805F4FEA15251FD9384680
:1026300024F0010C05EBC471BCF1FE6F01EB0C1131
:1026400002D8F0BCBDE8008124425CBF01F5801EC9
:102650009EEAC47F02D4F0BCBDE80081244238D495
:10266000F0BCA1F1C041BDE8004100F0F3B94FEA70
:10267000D22242EA43524FEAD323A7FB02864FEA13
:10268000D02040EA415007FB03661EEA0E0F4FEAD6
:10269000D12105FB026658BFA6EB0056B6EB0056EB
:1026A0004FEA520E4EEAC37E18EB0E0E56EB530E57
:1026B000BDD518EB02085E417F1C55F10005B6E759
:1026C0004FF480154FF000074FF000064FF0000860
:1026D000ADE7F0BC4FF0000001F1C04101F0004156
:1026E000BDE8008111EA0C1F0CEA131500D00CE0C4
:1026F00013EA0C1F00F025804FF00000F0BC81EAC7
:10270000030101F00041BDE80081F0BCBDE80041DB
:1027100081EA030100F09EB9F0BCBDE8004170B54C
:1027200000F04AF9097EFC3E00F007B881EA030197
:102730004FF0000001F00041704781EA030100F012
:1027400089B9F0BCBDE800414FF000002149704755
:10275000FFFDFBF9F7F5F4F2F0EEEDEBE9E8E6E466
:10276000E3E1E0DEDDDBDAD8D7D5D4D3D1D0CFCDED
:10277000CCCBCAC8C7C6C5C4C2C1C0BFBEBDBCBB26
:10278000BAB9B8B7B6B5B4B3B2B1B0AFAEADACAB21
:10279000AAA9A8A8A7A6A5A4A3A3A2A1A09F9F9EFB
:1027A0009D9C9C9B9A9999989797969595949393AD
:1027B000929191908F8F8E8E8D8C8C8B8B8A898944
:1027C00088888787868585848483838282818180C7
:1027D0000000FF070000F87F4FEA41034FEA535320
:1027E000A3F58063D3F11E03C8BFD3F1210C0CDD28
:1027F0004FF0004242EAC12242EA505232FA03FC50
:102800008CEAE17CACEBE1707047102BC4BF002078
:10281000704703F5787CBCF1FF3F04D06FF00042B5
:1028200082EA2100704770B500F0C6F84992248012
:1028300000207047F2E710F0004248BF4042B0FA73
:1028400080F310FA03F10AD0C3F11D0303F580638E
:102850004FEA415002EB035202EBD12170474FF097
:1028600000007047DFF848C170B51CEA111E1EBF9A
:102870001CEA13159EEA0C0F95EA0C0F00F06F800E
:1028800081EA030423EA4C134EEAD47E21EA4C1178
:1028900041F4801143F48013AE44A1FB024CA0FB31
:1028A0000365AEF17F7E361955EB0C05A1FB034C99
:1028B0004CF10003A0FB021C16EB0C06654153F122
:1028C0000003094218BF46F0010613F4007F0BD144
:1028D0004FEA03314FEA0530340341EA155140EA2B
:1028E00016506FF003020AE04FEAC3214FEAC520F9
:1028F000F40241EA555140EA56506FF0020202EBF1
:102900002E4201EB025585EACE710AD05FEA440CF3
:1029100018BF24F0004450F1000041F1000120EA0A
:10292000D47040F2FE7C624500D270BDA84214BF54
:102930004FF080444FF04044002E08BF0024BEF109
:10294000806FA8BFA1F1C041BDE8704080F28280D5
:102950004FF0000001F1C04101F0004170479EEAD4
:102960000C0F0CEA131518BF95EA0C0F06D04FF0A8
:10297000000081EA030E0EF0004170BD00F01CF86B
:102980008900013E00F007B800F009B84FEA430C97
:102990005FEA5C5C08D081EA030100F05BB84FEAB3
:1029A000410C5FEA5C5CF6D14FF0000001497047D2
:1029B0000000FF070000F87F0EF1020E2EF0030E5C
:1029C0005EF8046B364205D4012A43EB030515F586
:1029D000001F12D8012841EB010C1CF5001F0CD878
:1029E0000ED14FEAD17C15F5001F0CEB4C0C0CF10D
:1029F000020C08BF4CEBD37C04E04FF0080C01E064
:102A00004FEAD37C0CEB4C0526FA05F606F00706D8
:102A1000B6F1040C06D20EEB860CBDE870404CF00B
:102A2000010C6047DFE80CF0090B02024FF0004197
:102A30004FF00000A1F5002170BD19461046012895
:102A400051EB010418BFD4F5001484BF002001F03D
:102A5000004170BD0808A0F500114FEA3101704730
:102A6000FFFFFFFFFFFFFFFFFFFFFFFFFFFFFFFF76
:102A7000FFFFFFFFFFFFFFFFFFFFFFFF7F7F7F7F66
:102A80007FFFFFFFFFFFFFFFFFFFFFFFFFFFFFFFD6
:102A9000FFFFFFFFFFFFFFFFFFFFFFFFFFFFFFFF46
:102AA000FFFFFFFFFFFFFFFFFFFFFFFFFFFFFFFF36
:102AB000FFFFFFFFFFFFFFFFFFFFD8FCFAF2F0C0B0
:102AC00000000103071FFFFFFFFFFFFFFFFFFFFFE6
:102AD000FFFFFFFFFFFFFFFFFFFFFFFFFFFFFFFF06
:102AE000FFFFFFFF7F7F7F7F3F1FFFF7FBFFFFFFA2
:102AF000FFFFFFFFFFFFFB010000000303030B03C9
:102B00000304024060F8FFFFFFFFFFFFFFFFFFFF2E
:102B1000FFFFFFFFFFFFFFFFFFFFFFFFFFFFFFFFC5
:102B2000FFFFFFFFFC8000000000071FFFFFFFFF0B
:102B3000FF7F3F0F0707E3080000000000000000D0
:102B400000000001000001030FFFFFFFFFFFFFFF78
:102B5000FFFFFFFFFFFFFFFFFFFFFFFFFFFFFFFF85
:102B6000FFFFFFFFFFFFFCC00000000001030301A7
:102B70000000000000000300000000000000000052
:102B8000000000000000000000FFFFFFFFFFFFFF4C
:102B9000FFFFFFFFFFFFFFFFFFFFFFFFFFFFFFFF45
:102BA000FFFFFFFFFFFFFFFFFEFCF8F8F8F8F8FC5F
:102BB000FCFCFCFC7C0000E00000000000000000C9
:102BC00000F8C0000000000000FFFFFFFFFFFFFF54
:102BD000FFFFFFFFFFFFFFFFFFFFFFFFFFFFFFFF05
:102BE000FFFFFFFFFFFFFFFFFFFFFFFFFFFFFFFFF5
:102BF000FFFFFFFFF8E0006700000000000000009A
:102C000000003F10000000000001031FFFFFFFFF56
:102C1000FFFFFFFFFFFFFFFFFFFFFFFFFFFFFFFFC4
:102C2000FFFFFFFFFFFFFFFFFFFFFFFFFFFFFFFFB4
:102C3000FFFFFFFFFFFFF8F01100000000000000A1
:102C40000000000320000000000002FFFFFFFFFF64
:102C5000FFFFFFFFFFFFFFFFFFFFFFFFFFFFFFFF84
:102C6000FFFFFFFFFFFFFFFFFFFFFFFFFFFFFFFF74
:102C7000FFFFFFFFFFFFFFFFFFFFFFFFFFFF7F7F64
:102C80007F7F7F7F7FFFFFFFFFFFFFFFFFFFFFFFD4
:102C9000FFFFFFFFFFFFFFFFFFFFFFFFFFFFFFFF44
:102CA000FFFFFFFFFFFFFFFFFFFFFFFFFFFFFFFF34
:102CB000FFFFFFFFFFFFFFFFFFFFFFFFF3E8FCFC4D
:102CC000F2EAE000000001030F3FFFFFFFFFFFFFFC
:102CD000FFFFFFFFFFFFFFFFFFFFFFFFFFFFFFFF04
:102CE000FFFFFFFFFFFFFFFFFFFFFFFFFFFFFFFFF4
:102CF000FFFFFFFFFFFFFFFFFFFF1F1B1303130378
:102D000001000006000080C0E0F0FFFFFFFFFFFFB2
:102D1000FFFFFFFFFFFFFFFFFFFFFFFFFFFFFFFFC3
:102D2000FFFFFFFFFFFFFFFF7F3F1F5FBF6F1F031F
:102D300023071F1FFFFF6F271F0300000000000075
:102D4000000060180402020103073FFFFFFFFFFFBE
:102D5000FFFFFFFFFFFFFFFFFFFFFFFFFFFFFFFF83
:102D6000FFFFFFFFFFFFFFF1C08000000000000039
:102D7000000001000303000000000000000000004C
:102D800000010000000000000000EEFFFFFFFFFF59
:102D9000FFFFFFFFFFFFFFFFFFFFFFFFFFFFFFFF43
:102DA000FFFFFFFFFFFFFFFFFFFFFFFEFEFCFCFC3E
:102DB000C000000000000000000000000000000053
:102DC00000000000000000000020FFFFFFFFFFFFE9
:102DD000FFFFFFFFFFFFFFFFFFFFFFFFFFFFFFFF03
:102DE000FFFFFFFFFFFFFFFFFFFFFFFFFFFFFFFFF3
:102DF000FFFFFCF8F8F8F0E0000000000000000021
:102E00000000383800000000000003073FFFFFFF0C
:102E1000FFFFFFFFFFFFFFFFFFFFFFFFFFFFFFFFC2
:102E2000FFFFFFFFFFFFFFFFFFFFFFFFFFFFFFFFB2
:102E3000FFFFFFFFFFFFFCF00000000000000000AC
:102E40000000000200000000000000FCFFFFFFFF88
:102E5000FFFFFFFFFFFFFFFFFFFFFFFFFFFFFFFF82
:102E6000FFFFFFFFFFFFFFFFFFFFFFFFFFFFFFFF72
:102E7000FFFFFFFFFFFFFFFFFFFFFFFFFFFFFF7FE2
:102E80007F3F3F7F7F7FFFFFFFFFFFFFFFFFFFFFD2
:102E9000FFFFFFFFFFFFFFFFFFFFFFFFFFFFFFFF42
:102EA000FFFFFFFFFFFFFFFFFFFFFFFFFFFFFFFF32
:102EB000FFFFFFFFFFFFFFFFFFFFFFFFFF7130542A
:102EC000FCFEEEE0C0000001030F7FFFFFFFFFFFED
:102ED000FFFFFFFFFFFFFFFFFFFFFFFFFFFFFFFF02
:102EE000FFFFFFFFFFFFFFFFFFFFFFFFFFFFFFFFF2
:102EF000FFFFFFFFFFFFFFFFFFFFFF9F1F371303D2
:102F000003030301060A44E0E0F8FEFFFFFFFFFFB2
:102F1000FFFFFFFFFFFFFFFFFFFFFFFFFFFFFFFFC1
:102F2000FFFFFFFFFFFFFFFFFFFFFFFFFFFFFFFFB1
:102F3000FFFFFFFFFF0F0F07833F030100000000AB
:102F400000000000F00C040203030F1F7FFFFFFFCF
:102F5000FFFFFFFFFFFFFFFFFFFFFFFFFFFFFFFF81
:102F6000FFFFFFFFFFFFFFFFFFFFFFFFFFFFFFFF71
:102F7000FFFFFF3F000000001F0000001C000000DA
:102F800000000000FF0000000000000000EFFFFF55
:102F9000FFFFFFFFFFFFFFFFFFFFFFFFFFFFFFFF41
:102FA000FFFFFFFFFFFFFFFFFFFFFFFFFFFFFF7FB1
:102FB000BF9F0F060000004000000000000000005E
:102FC00000000000070000000000000000FFFFFFFD
:102FD000FFFFFFFFFFFFFFFFFFFFFFFFFFFFFFFF01
:102FE000FFFFFFFFFFFFFFFFFFFFFF0F1F0C070F9C
:102FF0000F0706000C1C102C1F3C000000000000F6
:103000000000000000000000000000000007FFFFBB
:10301000FFFFFFFFFFFFFFFFFFFFFFFFFFFFFFFFC0
:10302000FFFFFFFFFFFFFFFFFFFFFFFCF0E0C0809F
:1030300080800000808080C0E00000000000000070
:10304000000000000400000000000000F8FCFFFF8A
:10305000FFFFFFFFFFFFFFFFFFFFFFFFFFFFFFFF80
:10306000FFFFFFFFFFFFFFFFFFFFFFFFFFFFFFFF70
:10307000FFFFFFFFFFFFFFFFFFFFFFFFFFFFFFFF60
:10308000FF3F3F1F1F3F3F3F3F7FFFFFFFFFFFFF10
:10309000FFFFFFFFFFFFFFFFFFFFFFFFFFFFFFFF40
:1030A000FFFFFFFFFFFFFFFFFFFFFFFFFFFFFFFF30
:1030B000FFFFFFFFFFFFFFFFFFFFFFFFFFFFFFC15E
:1030C000F0F0B0BEFEEEC0C0000000030FFFFFFF37
:1030D000FFFFFFFFFFFFFFFFFFFFFFFFFFFFFFFF00
:1030E000FFFFFFFFFFFFFFFFFFFFFFFFFFFFFFFFF0
:1030F000FFFFFFFFFFFFFFFFFFFFFFFFFFFFFF1FC0
:103100000F2E0F0C0F0701010674F8FCFFFFFFFFE5
:10311000FFFFFFFFFFFFFFFFFFFFFFFFFFFFFFFFBF
:10312000FFFFFFFFFFFFFFFFFFFFFFFFFFFFFFFFAF
:10313000FFFFFFFFFF7F1F0707030301FF030000DF
:10314000000000000000000000E030090F0F1F3FEA
:10315000FFFFFFFFFFFFFFFFFFFFFFFFFFFFFFFF7F
:10316000FFFFFFFFFFFFFFFFFFFFFFFFFFFFFFFF6F
:10317000FF7F0F07010000000000000000000000BA
:103180001800000000000000FE3F000000000000EA
:103190000003FFFFFFFFFFFFFFFFFFFFFFFFFFFF3A
:1031A000FFFFFFFFFFFFFFFFFFFFFFFF3F1F0301C9
:1031B0000100000080F0F0F8F80000FE00000000C0
:1031C00000000000000000003F00000000000000C0
:1031D000000000FFFFFFFFFFFFFFFFFFFFFFFFFFFC
:1031E000FFFFFFFFFFFFFFFF7F3F0B000000C0E07E
:1031F000E0F0A78747070F0F5F7A2030000000003C
:1032000000000000000000000000000000000000BE
:1032100000C0E0FFFFFFFFFFFFFFFFFFFFFFFFFF1B
:10322000FFFFFFFFFFFFFFFFF0F0D018302101018B
:1032300000000000000000000000C00000000000CE
:103240000000000000000008000000000000E0F0A6
:10325000FEFFFFFFFFFFFFFFFFFFFFFFFFFFFFFF7F
:10326000FFFFFFFFFFFFFFFFFFFFFFFFFFFFFFFF6E
:10327000FFFFFFFFFFFFFFFFFFFFFFFFFFFFFFFF5E
:10328000FFFF7F3F1F1F1F1F1F1F3F7FFFFFFFFF0E
:10329000FFFFFFFFFFFFFFFFFFFFFFFFFFFFFFFF3E
:1032A000FFFFFFFFFFFFFFFFFFFFFFFFFFFFFFFF2E
:1032B000FFFFFFFFFFFFFFFFFFFFFFFFFFFFFFFF1E
:1032C000FFE0F0E0E07EFFE8E0C00000000107FF63
:1032D000FFFFFFFFFFFFFFFFFFFFFFFFFFFFFFFFFE
:1032E000FFFFFFFFFFFFFFFFFFFFFFFFFFFFFFFFEE
:1032F000FFFFFFFFFFFFFFFFFFFFFFFFFFFFFFFFDE
:10330000FF3F1F5C18190F0302020278FCFFFFFF4A
:10331000FFFFFFFFFFFFFFFFFFFFFFFFFFFFFFFFBD
:10332000FFFFFFFFFFFFFFFFFFFFFFFFFFFFFFFFAD
:10333000FFFFFFFFFFFFFFFFFFFF3F0F0303FD0F37
:10334000000000000000000000000000C061331F0A
:103350001F7FFFFFFFFFFFFFFFFFFFFFFFFFFFFFDD
:10336000FFFFFFFFFFFFFFFFFFFFFFFFFFFFFFFF6D
:10337000FFFFFFFFFFFFFFFFFFFFE00000F0030084
:1033800000000030000000000000F00F000000000E
:10339000000000018FFFFFFFFFFFFFFFFFFFFFFFA8
:1033A000FFFFFFFFFFFFFFFFFFFFFFFFFFFFFFFF2D
:1033B000FFFFFFFFFFFFFFFFFFFFFF03E003000032
:1033C0000000000000000000603F07000000000057
:1033D00000000000FFFFFFFFFFFFFFFFFFFFFFFFF9
:1033E000FFFFFFFFFFFFFFFFFFFFFFFFFFFFFFFFED
:1033F000FFFFFFFFFF3F0F170F0300F88F080804C0
:10340000040E0200000000000000000000000000A8
:10341000000080C1FFFFFFFFFFFFFFFFFFFFFFFF77
:10342000FFFFFFFFFFFFFFFFFFFFFFFFFFFFFFFFAC
:10343000FFFFFFFFFFE08000000000010900000027
:10344000000000000000010100000000000000E09A
:10345000E0FBFFFFFFFFFFFFFFFFFFFFFFFFFFFF9F
:10346000FFFFFFFFFFFFFFFFFFFFFFFFFFFFFFFF6C
:10347000FFFFFFFFFFFFFFFFFFFFFFFFFFFF1F0734
:103480000703C3830101010103070F1F7FFFFFFF34
:10349000FFFFFFFFFFFFFFFFFFFFFFFFFFFFFFFF3C
:1034A000FFFFFFFFFFFFFFFFFFFFFFFFFFFFFFFF2C
:1034B000FFFFFFFFFFFFFFFFFFFFFFFFFFFFF8F032
:1034C000F8589E1E78FCFC7800302060FCFFFFFF5F
:1034D000FFFFFFFFFFFFFFFFFFFFFFFFFFFFFFFFFC
:1034E000FFFFFFFFFFFFFFFFFFFFFFFFFFFFFFFFEC
:1034F000FFFFFFFFFFFFFFFFFFFFFFFFFFFFFFFFDC
:10350000FF7F7F7E3605000800000080008F9F3F10
:10351000FFFFFFFFFFFFFFFFFFFFFFFFFFFFFFFFBB
:10352000FFFFFFFFFFFFFFFFFFFFFFFFFFFFFFFFAB
:10353000FFFFFFFFFFFFFFFFFFFFFFFFFFFFFFFF9B
:10354000FFFF180000000000040000000000000160
:10355000030FFFFFFFFFFFFFFFFFFFFFFFFFFFFF67
:10356000FFFFFFFFFFFFFFFFFFFFFFFFFFFFFFFF6B
:10357000FFFFFFFFFFFFFFFFFFFFFFFFFFFFFFFF5B
:10358000FF0000020000000000000000000000003A
:103590000000FFFFFFFFFFFFFFFFFFFFFFFFFFFF39
:1035A000FFFFFFFFFFFFFFFFFFFFFFFFFFFFFFFF2B
:1035B000FFFFFFFFFFFFFFFFFFFFFFFFFFFFFFFF1B
:1035C0007F000080180000000000000000000000E4
:1035D00000C0FFFFFFFFFFFFFFFFFFFFFFFFFFFF39
:1035E000FFFFFFFFFFFFFFFFFFFFFFFFFFFFFFFFEB
:1035F000FFFFFFFFFFFFFFFFFFFFFFFFFFFF0700D2
:103600000000300700000000000000000000000083
:103610003CFFFFFFFFFFFFFFFFFFFFFFFFFFFFFF7D
:10362000FFFFFFFFFFFFFFFFFFFFFFFFFFFFFFFFAA
:10363000FFFFFFFFFFFFFFFFFFFFFFFFFFFF030095
:103640000000030000000000000000000000F8FC83
:10365000FFFFFFFFFFFFFFFFFFFFFFFFFFFFFFFF7A
:10366000FFFFFFFFFFFFFFFFFFFFFFFFFFFFFFFF6A
:10367000FFFFFFFFFFFFFFFFFFFFFFFFFF3F1F0FEA
:103680000F0F070707070F0F1F3F7FFFFFFFFFFF0A
:10369000FFFFFFFFFFFFFFFFFFFFFFFFFFFFFFFF3A
:1036A000FFFFFFFFFFFFFFFFFFFFFFFFFFFFFFFF2A
:1036B000FFFFFFFFFFFFFFFFFFFFFFFFF9C0C0C0DD
:1036C000FBB1F4F0F8F8F8E028B800FDFFFFFFFFC9
:1036D000FFFFFFFFFFFFFFFFFFFFFFFFFFFFFFFFFA
:1036E000FFFFFFFFFFFFFFFFFFFFFFFFFFFFFFFFEA
:1036F000FFFFFFFFFFFFFFFFFFFFFFFFFFFFFFE1F8
:10370000010101010103010000000020404F9F3F23
:10371000FFFFFFFFFFFFFFFFFFFFFFFFFFFFFFFFB9
:10372000FFFFFFFFFFFFFFFFFFFFFFFFFFFFFFFFA9
:10373000FFFFFFFFFFFFFFFFFFFFFFFFFFFFFFFF99
:10374000F80000000000000000000000000000037E
:10375000041F3FFFFFFFFFFFFFFFFFFFFFFFFFFF14
:10376000FFFFFFFFFFFFFFFFFFFFFFFFFFFFFFFF69
:10377000FFFFFFFFFFFFFFFFFFFFFFFFFFFFFFFF59
:10378000FF0000000000000000000000000000003A
:103790000000180F3FFFFFFFFFFFFFFFFFFFFFFFCE
:1037A000FFFFFFFFFFFFFFFFFFFFFFFFFFFFFFFF29
:1037B000FFFFFFFFFFFFFFFFFFFFFFFFFFFFFFFF19
:1037C000FF9F00000000000000000000000000005B
:1037D000000000000001FFFFFFFFFFFFFFFFFFFFF2
:1037E000FFFFFFFFFFFFFFFFFFFFFFFFFFFFFFFFE9
:1037F000FFFFFFFFFFFFFFFFFFFFFFFFFFFF0F07C1
:1038000003110300000000000000000000000000A1
:10381000000000E0F8FCFFFFFFFFFFFFFFFFFFFFDE
:10382000FFFFFFFFFFFFFFFFFFFFFFFFFFFFFFFFA8
:10383000FFFFFFFFFFFFFFFFFFFFFFFFFFFF0F0087
:103840000002000000000000000000000000C0F0C6
:10385000F8FCFFFFFFFFFFFFFFFFFFFFFFFFFFFF82
:10386000FFFFFFFFFFFFFFFFFFFFFFFFFFFFFFFF68
:10387000FFFFFFFFFFFFFFFFFFFFFFFF7F3F1F1F58
:103880001F1F1F1F3F3F7FFFFFFFFFFFFFFFFFFFC8
:10389000FFFFFFFFFFFFFFFFFFFFFFFFFFFFFFFF38
:1038A000FFFFFFFFFFFFFFFFFFFFFFFFFFFFFFFF28
:1038B000FFFFFFFFFFFFFFFFFFFF8100008CFE7493
:1038C000E0F0F8F0F0F05030F3FFFFFFFFFFFFFFF4
:1038D000FFFFFFFFFFFFFFFFFFFFFFFFFFFFFFFFF8
:1038E000FFFFFFFFFFFFFFFFFFFFFFFFFFFFFFFFE8
:1038F000FFFFFFFFFFFFFFFFFFFFFFFFFEFFFFF9DF
:10390000F80E0F03030100000000010F2F5F7FFF7F
:10391000FFFFFFFFFFFFFFFFFFFFFFFFFFFFFFFFB7
:10392000FFFFFFFFFFFFFFFFFFFFFFFFFFFFFFFFA7
:10393000FFFFFFFFFFFFFFFFFFFFFFFFFFFFFFFF97
:10394000FFFF7E00000000000000000000000001FA
:10395000077FFFFFFFFFFFFFFFFFFFFFFFFFFFFFEF
:10396000FFFFFFFFFFFFFFFFFFFFFFFFFFFFFFFF67
:10397000FFFFFFFFFFFFFFFFFFFF7F070F0F1F1F6F
:103980001F0F0000180000000000000000000000F1
:1039900000007FFFFFFFFFFFFFFFFFFFFFFFFFFFB5
:1039A000FFFFFFFFFFFFFFFFFFFFFFFFFFFFFFFF27
:1039B000FFFFFFFFFFFFFFFFFFFFFCFCFCFCFCF82D
:1039C000F80000E00000000000000000000000001F
:1039D000000000010F7FFFFFFFFFFFFFFFFFFFFF62
:1039E000FFFFFFFFFFFFFFFFFFFFFFFFFFFFFFFFE7
:1039F000FFFFFFFFFFFFFFFFFFFFFFFFFFFF9F0F27
:103A00000300001F00000000000000000000000094
:103A1000000000000080FFFFFFFFFFFFFFFFFFFF30
:103A2000FFFFFFFFFFFFFFFFFFFFFFFFFFFFFFFFA6
:103A3000FFFFFFFFFFFFFFFFFFFFFFFFFFFFFF0293
:103A40000000000000000000000000000000000076
:103A50000000000080FFFFFFFFFFFFFFFFFFFFFFF1
:103A6000FFFFFFFFFFFFFFFFFFFFFFFFFFFFFFFF66
:103A7000FFFFFFFFFFFFFFFFFFFFFFFFFFFFFFFF56
:103A8000FFFFFFFFFFFFFFFFFFFFFFFFFFFFFFFF46
:103A9000FFFFFFFFFFFFFFFFFFFFFFFFFFFFFFFF36
:103AA000FFFFFFFFFFFFFFFFFFFFFFFFFFFFFFFF26
:103AB000FFFFFFFFFFFFFF7F1F0707C3C3030303D2
:103AC0000307070F1F7FFFFFFFFFFFFFFFFFFFFF42
:103AD000FFFFFFFFFFFFFFFFFFFFFFFFFFFFFFFFF6
:103AE000FFFFFFFFFFFFFFFFFFFFFFFFFFFFFFFFE6
:103AF000FFFFFFFFFFFFFFF8E0E0F0FD8EDDDEFFE0
:103B00007E3E1E0A061E3FFFFFFFFFFFFFFFFFFF77
:103B1000FFFFFFFFFFFFFFFFFFFFFFFFFFFFFFFFB5
:103B2000FFFFFFFFFFFFFFFFFFFFFFFFFFFFFFFFA5
:103B3000FFFFFFFFFFFFFFFFFFFFFFFFFFF7E1C0FA
:103B40000000008000000202020307070F1F3F7FF2
:103B5000FFFFFFFFFFFFFFFFFFFFFFFFFFFFFFFF75
:103B6000FFFFFFFFFFFFFFFFFFFFFFFFFFFFFFFF65
:103B7000FFFFFFFFFFFFFFFFFFFFFFFFFFFFFF3F15
:103B800000C0000F800000000000000000000000E6
:103B9000033FFFFFFFFFFFFFFFFFFFFFFFFFFFFFF1
:103BA000FFFFFFFFFFFFFFFFFFFFFFFFFFFFFFFF25
:103BB000FFFFFFFFFFFFFFFFFFFFFFFFFFFFFFF024
:103BC000000000001F0000000000000000000000D6
:103BD000000007FFFFFFFFFFFFFFFFFFFFFFFFFFEB
:103BE000FFFFFFFFFFFFFFFFFFFFFFFFFFFFFFFFE5
:103BF000FFFFFFFFFFFFFFBF9F0F172F5D0000407C
:103C0000C000000000C00000000000000000000034
:103C100000000003FFFFFFFFFFFFFFFFFFFFFFFFAD
:103C2000FFFFFFFFFFFFFFFFFFFFFFFFFFFFFFFFA4
:103C3000FFFFFF9F030000000000000000000000E5
:103C4000010000000000080000000000000000006B
:103C500000F0F8FCFFFFFFFFFFFFFFFFFFFFFFFF8C
:103C6000FFFFFFFFFFFFFFFFFFFFFFFFFFFFFFFF64
:103C7000FFFFFFFFFFFFFFFFFFFFFFFFFFFFFFFF54
:103C8000FFFFFFFFFFFFFFFFFFFFFFFFFFFFFFFF44
:103C9000FFFFFFFFFFFFFFFFFFFFFFFFFFFFFFFF34
:103CA000FFFFFFFFFFFFFFFFFFFFFFFFFFFFFFFF24
:103CB000FFFFFFFFFF1F0707870301010303030740
:103CC0000F1FFFFFFFFFFFFFFFFFFFFFFFFFFFFFD4
:103CD000FFFFFFFFFFFFFFFFFFFFFFFFFFFFFFFFF4
:103CE000FFFFFFFFFFFFFFFFFFFFFFFFFFFFFFFFE4
:103CF000FFFFFFFFFFF0E0F0F15D1C3CDEFE3C3C0F
:103D00000C060F3F7F7FFFFFFFFFFFFFFFFFFFFF5F
:103D1000FFFFFFFFFFFFFFFFFFFFFFFFFFFFFFFFB3
:103D2000FFFFFFFFFFFFFFFFFFFFFFFFFFFFFFFFA3
:103D3000FFFFFFFFFFFFFFFFFFFFFFF7E1000000B6
:103D4000000000000C0203030303070F0F3F7FFF77
:103D5000FFFFFFFFFFFFFFFFFFFFFFFFFFFFFFFF73
:103D6000FFFFFFFFFFFFFFFFFFFFFFFFFFFFFFFF63
:103D7000FFFFFFFFFFFFFFFFFF8F030101000000B8
:103D800000000000E0000000000000000000001F34
:103D9000FFFFFFFFFFFFFFFFFFFFFFFFFFFFFFFF33
:103DA000FFFFFFFFFFFFFFFFFFFFFFFFFFFFFFFF23
:103DB000FFFFFFBF3FFFBF7F3F000080F800000014
:103DC00000000000010000000000000000000000F2
:103DD00000031FFFFFFFFFFFFFFFFFFFFFFFFFFFCE
:103DE000FFFFFFFFFFFFFFFFFFFFFFFFFFC301001C
:103DF000000003030001030406141C2F0080008050
:103E000000000000000000000000000000000000B2
:103E100000000000FFFFFFFFFFFFFFFFFFFFFFFFAE
:103E2000FFFFFFFFFFFFFFFFFFFFFFFFFFFFFEFCA6
:103E3000F8F0F0F0F0F0F0F0F8F8FCFFFFFFFF7F93
:103E40003C00000000000000000000000000000036
:103E50000000FEFFFFFFFFFFFFFFFFFFFFFFFFFF71
:103E6000FFFFFFFFFFFFFFFFFFFFFFFFFFFFFFFF62
:103E7000FFFFFFFFFF3F1F0F0707070303030307B2
:103E80000F0F1FFFFFFFFFFFFFFFFFFFFFFFFFFF02
:103E9000FFFFFFFFFFFFFFFFFFFFFFFFFFFFFFFF32
:103EA000FFFFFFFFFFFFFFFFFFFFFFFFFFFFFFFF22
:103EB000FFFFFFFFFFF0E0F0E0FAB0F078F87820C5
:103EC00010081C3FFFFFFFFFFFFFFFFFFFFFFFFF8B
:103ED000FFFFFFFFFFFFFFFFFFFFFFFFFFFFFFFFF2
:103EE000FFFFFFFFFFFFFFFFFFFFFFFFFFFFFFFFE2
:103EF000FFFFFFFFFFFFFFFF7F3EFC1403030000F7
:103F0000000000000000801D070303070F3FFFFFB4
:103F1000FFFFFFFFFFFFFFFFFFFFFFFFFFFFFFFFB1
:103F2000FFFFFFFFFFFFFFFFFFFFFFFFFFFFFFFFA1
:103F3000FFFFFFFFFFFF03010000FF600000000024
:103F400000000000000007FE000000000000013F2C
:103F5000FFFFFFFFFFFFFFFFFFFFFFFFFFFFFFFF71
:103F6000FFFFFFFFFFFFFFFFFFFFFFFFFFFFFFFF61
:103F7000FFFFFFDF5F63C0000000017F80000000E3
:103F8000000000000000000300000000000000002E
:103F9000FFFFFFFFFFFFFFFFFFFFFFFFFFFFFFFF31
:103FA000FFFFFFFFFFFFFFFFFFFFFFFFFF3F1F11AF
:103FB0000F271F0D100C0205000020F0C3081C2E57
:103FC0001E2C0000000000000000000000000000A7
:103FD00080FFFFFFFFFFFFFFFFFFFFFFFFFFFFFF70
:103FE000FFFFFFFFFFFFFFFFFFFFFFFFFFF8E0C046
:103FF00080808080808080C0E0F0FCFFFF7F1C001C
:1040000000000000000000000000000000000000B0
:10401000013FFFFFFFFFFFFFFFFFFFFFFFFFFFFF6E
:10402000FFFFFFFFFFFFFFFFFFFFFFFFFFFFFFFFA0
:10403000FFFFFFFFFFFFFFFFFFFFFFFFFF1000007D
:104040000000000000000000000000000000002050
:1040500000000FFFFFFFFFFFFFFFFFFFFFFFFFFF5E
:10406000FFFFFFFFFFFFFFFFFFFFFFFFFFFFFFFF60
:10407000FFFFFFFFFFFFFFFFFFFFFFFFFFFFFFFF50
:10408000FFFFFFFFFFFFFFFFFFFFFFFFFFFFFFFF40
:10409000FFFFFFFFFFFFFFFFFFFFFFFFFFFFFFFF30
:1040A000FFFFFFFFFFFFFFFFFFFFFFFFFFFFFFFF20
:1040B000FFFFFFFFFFFFFFFF87030100A1000000DC
:1040C00000018187FFFFFFFFFFFFFFFFFFFFFFFFF3
:1040D000FFFFFFFFFFFFFFFFFFFFFFFFFFFFFFFFF0
:1040E000FFFFFFFFFFFFFFFFFFFFFFFFFFFFFFFFE0
:1040F000FFFFFFFFFFFFFFFFFFFFFEF6F3271703A2
:10410000030001030F0F0F9F7F3F3F7FFFFFFFFF64
:10411000FFFFFFFFFFFFFFFFFFFFFFFFFFFFFFFFAF
:10412000FFFFFFFFFFFFFFFFFFFFFFFFFFFFFFFF9F
:10413000FFFFFFFFFFFFFFFF0F07033FE04000000F
:10414000000000000000003F800000000107FFFFAA
:10415000FFFFFFFFFFFFFFFFFFFFFFFFFFFFFFFF6F
:10416000FFFFFFFFFFFFFFFFFFFFFFFFFFFFFFFF5F
:10417000FFFFFFFFFFFFFF070000000007F8000040
:10418000C040E0E0000000000F000000000003FF5E
:10419000FFFFFFFFFFFFFFFFFFFFFFFFFFFFFFFF2F
:1041A000FFFFFFFFFFFFFFFFFFFFFFFFFFFFFFFF1F
:1041B000FFFFFFFFFF3B00000000C0F0FFF0CE213B
:1041C000200304030000000000000C00000042DF98
:1041D000FFFFFFFFFFFFFFFFFFFFFFFFFFFFFFFFEF
:1041E000FFFFFFFFFFFFFFFFFFFFFFFFFFFFFFFFDF
:1041F0007F7FBF7F1D7C7C3C7EFFFFFFFFFF870131
:104200000000000000000000000000000000001F8F
:10421000FFFFFFFFFFFFFFFFFFFFFFFFFFFFFFFFAE
:10422000FFFFFFFFFFFFFFFFFFFFFFFFFFFFFF811C
:10423000000100000100000080E1FFFFFFFF00001F
:10424000000000000000C0E080000000000000004E
:104250000FFFFFFFFFFFFFFFFFFFFFFFFFFFFFFF5E
:10426000FFFFFFFFFFFFFFFFFFFFFFFFFFFFFFFF5E
:10427000FFFFFFFFFFFFFFFFFFFFFFFFFFFFFFFF4E
:10428000FFFFFFFFFFFFFFFFFFFFFFFFFFFFFFFF3E
:10429000FFFFFFFFFFFFFFFFFFFFFFFFFFFFFFFF2E
:1042A000FFFFFFFFFFFFFFFFFFFFFFFFFFFFFFFF1E
:1042B000FFFFFFFFFFFFFFFFFFFFFFFFFFFFFFFF0E
:1042C000FFFFFFFFFFFFFFFFFFFFFFFFFFFFFFFFFE
:1042D000FFFFFFFFFFFFFFFFFFFFFFFFFFFFFFFFEE
:1042E000FFFFFFFFFFFFFFFFFFFFFFFFFFFFFFFFDE
:1042F000FFFFFFFFFFFFFFFFFFFFFFFFFFC381D0B7
:1043000040C0C00103EFFFFFFFFFFFFFFFFFFFFF04
:10431000FFFFFFFFFFFFFFFFFFFFFFFFFFFFFFFFAD
:10432000FFFFFFFFFFFFFFFFFFFFFFFFFFFFFFFF9D
:10433000FFFFFFFFFFFFFFFFFFFFFFFF7F3FEF07D5
:10434000060301000001010303FF070F3FFFFFFF0A
:10435000FFFFFFFFFFFFFFFFFFFFFFFFFFFFFFFF6D
:10436000FFFFFFFFFFFFFFFFFFFFFFFFFFFFFFFF5D
:10437000FFFFFFFFFFFFFFFFFFFF3F010000001EE9
:10438000CC00000000400060C0070000000FFFFFED
:10439000FFFFFFFFFFFFFFFFFFFFFFFFFFFFFFFF2D
:1043A000FFFFFFFFFFFFFFFFFFFFFFFFFFFFFFFF1D
:1043B000FFFFFFFFFFFFFF7F0701000080F0F2001B
:1043C0000F0000000000000001000000E4FEFFFFFD
:1043D000FFFFFFFFFFFFFFFFFFFFFFFFFFFFFFFFED
:1043E000FFFFFFFFFFFFFFFFFFFFFFFFFFFFFFFFDD
:1043F000FFFFFFFFFF0F030080E0F8FEFFFFFF005D
:10440000000000000080000000000000F3FFFFFF3C
:10441000FFFFFFFFFFFFFFFFFFFFFFFFFFFFFFFFAC
:10442000FFFFFFFFFFFFFFFFFFFFFFFFFFFFFFFF9C
:10443000FFFFFFFFEFFCFCFFFFFFFFFFFFFFFF0899
:1044400000000000FEFF0000000000E0FFFFFFFF93
:10445000FFFFFFFFFFFFFFFFFFFFFFFFFFFFFFFF6C
:10446000FFFFFFFFFFFFFFFFFFFFFFFFFFFFFFFF5C
:10447000FFFFFFFFFFFFFFFFFFFFFFFFFFFFFFFF4C
:10448000FFFFFFFFFFFFFFFFFFFFFFFFFFFFFFFF3C
:10449000FFFFFFFFFFFFFFFFFFFFFFFFFFFFFFFF2C
:1044A000FFFFFFFFFFFFFFFFFFFFFFFFFFFFFFFF1C
:1044B000FFFFFFFFFFFFFFFFFFFFFFFFFFFF3F1FAC
:1044C0001F1F0F1F3FFFFFFFFFFFFFFFFFFFFFFF4C
:1044D000FFFFFFFFFFFFFFFFFFFFFFFFFFFFFFFFEC
:1044E000FFFFFFFFFFFFFFFFFFFFFFFFFFFFFFFFDC
:1044F000FFFFFFFFFFFFFFFFFFFFFFFFFFFFFE7C50
:104500000E1E1E04041F1F3FFF7F7FFFFFFFFFFFE4
:10451000FFFFFFFFFFFFFFFFFFFFFFFFFFFFFFFFAB
:10452000FFFFFFFFFFFFFFFFFFFFFFFFFFFFFFFF9B
:10453000FFFFFFFFFFFFFFFFFFFFFF3F03010FC074
:104540000000000000000000FF000001FFFFFFFF6F
:10455000FFFFFFFFFFFFFFFFFFFFFFFFFFFFFFFF6B
:10456000FFFFFFFFFFFFFFFFFFFFFFFFFFFFFFFF5B
:10457000FFFFFFFFFFFFFFFFFF3F070000C0F887BF
:104580006000000000000002110600F8FCFFFFFFC1
:10459000FFFFFFFFFFFFFFFFFFFFFFFFFFFFFFFF2B
:1045A000FFFFFFFFFFFFFFFFFFFFFFFFFFFFFFFF1B
:1045B000FFFFFFFF7F3F0F030070F8FCFF3F030189
:1045C0000000000000000000000000FFFFFFFFFFF0
:1045D000FFFFFFFFFFFFFFFFFFFFFFFFFFFFFFFFEB
:1045E000FFFFFFFFFFFFFFFFFFFFFFFFFFFFFFFFDB
:1045F000FFFFFFF8F0E0E0E0E0F0FFFFFF02000067
:104600000000F8FEFFF00000000000FFFFFFFFFFCA
:10461000FFFFFFFFFFFFFFFFFFFFFFFFFFFFFFFFAA
:10462000FFFFFFFFFFFFFFFFFFFFFFFFFFFFFFFF9A
:10463000FFFFFFFFFFFFFFFFFFFFFFFFFFFFF08018
:1046400000000FFFFF0F000000E0FCFFFFFFFFFF77
:10465000FFFFFFFFFFFFFFFFFFFFFFFFFFFFFFFF6A
:10466000FFFFFFFFFFFFFFFFFFFFFFFFFFFFFFFF5A
:10467000FFFFFFFFFFFFFFFFFFFFFFFFFFFFFF7FCA
:104680007FFF7FFFFFFFFFFFFFFFFFFFFFFFFFFF3A
:10469000FFFFFFFFFFFFFFFFFFFFFFFFFFFFFFFF2A
:1046A000FFFFFFFFFFFFFFFFFFFFFFFFFFFFFFFF1A
:1046B000FFFFFFFFFFFFFFFFFFFFFFFFFFF1F0F036
:1046C000F070300071FFFFFFFFFFFFFFFFFFFFFFF4
:1046D000FFFFFFFFFFFFFFFFFFFFFFFFFFFFFFFFEA
:1046E000FFFFFFFFFFFFFFFFFFFFFFFFFFFFFFFFDA
:1046F000FFFFFFFFFFFFFFFFFFFFFFFFFF03E300E1
:10470000400000000000860103073FFFFFFFFFFF9E
:10471000FFFFFFFFFFFFFFFFFFFFFFFFFFFFFFFFA9
:10472000FFFFFFFFFFFFFFFFFFFFFFFFFFFFFFFF99
:10473000FFFFFFFFFF7F3F3F3F3F1F8F83C000789A
:10474000000000000000FF030080E0F1FFFFFFFF1A
:10475000FFFFFFFFFFFFFFFFFFFFFFFFFFFFFFFF69
:10476000FFFFFFFFFFFFFFFFFFFFFFFFFFFFFFFF59
:10477000FFFFFFFFFFF0F0F0F0F0F8FF7F03000015
:104780000000000000000000DEFFFFFFFFFFFFFF52
:10479000FFFFFFFFFFFFFFFFFFFFFFFFFFFFFFFF29
:1047A000FFFFFFFFFFFFFFFFFFFFFFFFFFFFFFFF19
:1047B000FFFFFFFFFFFFFFFFFFFFFFFF0000000005
:1047C000F0FCFCC000000000FFFFFFFFFFFFFFFF49
:1047D000FFFFFFFFFFFFFFFFFFFFFFFFFFFFFFFFE9
:1047E000FFFFFFFFFFFFFFFFFFFFFFFFFFFFFFFFD9
:1047F000FFFFFFFFFFFFFFFFFFFFFFFFF8C000000D
:1048000007FFFFFF060000C0FCFFFFFFFFFFFFFFE9
:10481000FFFFFFFFFFFFFFFFFFFFFFFFFFFFFFFFA8
:10482000FFFFFFFFFFFFFFFFFFFFFFFFFFFFFFFF98
:10483000FFFFFFFFFFFFFFFFFFFFFFFF7F7F1F0067
:1048400080808FC280800E1F1FFFFFFFFFFFFFFFD2
:10485000FFFFFFFFFFFFFFFFFFFFFFFFFFFFFFFF68
:10486000FFFFFFFFFFFFFFFFFFFFFFFFFFFFFFFF58
:10487000FFFFFFFFFFFFFFFFFFFFFFFFFFFFFFFF48
:10488000FFFFFFFFFFFFFFFFFFFFFFFFFFFFFFFF38
:10489000FFFFFFFFFFFFFFFFFFFFFFFFFFFFFF0027
:1048A000FFFFFFFFFFFFFFFFFFFFFFFFFFFFFFFF18
:1048B000FFFFFFFFFFFFFFFFFFFFFFFFFFFFC3E360
:1048C000A3FBF38303E7FFFFFFFFFFFFFFFFFFFFF4
:1048D000FFFFFFFFFFFFFFFFFFFFFFFFFFFFFF00E7
:1048E000FFFFFFFFFFFFFFFFFFFFFFFFFFFFFFFFD8
:1048F000FFFFFFFF7F3F3F3F3F3F1F1F0F03E7418A
:1049000000000000F50300000001031F3FFFFFFF50
:10491000FFFFFFFFFFFFFFFFFFFFFFFFFFFFFFFFA7
:10492000FFFFFFFFFFFFFFFFFFFFFFFFFFFFFFFF97
:10493000FFFFFFF8F0E0E0F0F0FCFFFFFFFF0F00EB
:10494000000000003F000000FFFFFEFEFEFFFFFF33
:10495000FFFFFFFFFFFFFFFFFFFFFFFFFFFFFFFF67
:10496000FFFFFFFFFFFFFFFFFFFFFFFFFFFFFFFF57
:10497000FFFFFFFFFFFFFFFFFFFFFFFF0F0700002D
:1049800000000000000000BEFFFFFFFFFFFFFFFF71
:10499000FFFFFFFFFFFFFFFFFFFFFFFFFFFFFFFF27
:1049A000FFFFFFFFFFFFFFFFFFFFFFFFFFFFFFFF17
:1049B000FFFFFFFFFFFFFFFFFFFF7F00000000C0C2
:1049C000F0F8C000000000FFFFFFFFFFFFFFFFFF48
:1049D000FFFFFFFFFFFFFFFFFFFFFFFFFFFFFFFFE7
:1049E000FFFFFFFFFFFFFFFFFFFFFFFFFFFFFFFFD7
:1049F000FFFFFFFFFFFFFFFFFFFFFCE00000073F9F
:104A0000FFFFFFFF000000FFFFFFFFFFFFFFFFFFB3
:104A1000FFFFFFFFFFFFFFFFFFFFFFFFFFFFFFFFA6
:104A2000FFFFFFFFFFFFFFFFFFFFFFFFFFFFFFFF96
:104A3000FFFFFFFFFFFFFFFFFFFFFF9F8FC480C04F
:104A4000C3FFFFFFE0E0E0E3E7FFFFFFFFFFFFFF43
:104A5000FFFFFFFFFFFFFFFFFFFFFFFFFFFFFFFF66
:104A6000FFFFFFFFFFFFFFFFFFFFFFFFFFFFFFFF56
:104A7000FFFFFFFFFFFFFFFFFFFFFFFFFFFFFFFF46
:104A8000FFFFFFFFFFFFFFFFFFFFFFFFFFFFFFFF36
:104A9000FFFFFFFFFFFFFFFFFFFFFFFFFF00FEFF26
:104AA000FFFFFFFFFFFFFFFFFFFFFFFFFFFFFFFF16
:104AB000FFFFFFFFFFFFFFFFFFFFFFFF3F0F0F1F86
:104AC0001F073F3FFFFFFFFFFFFFFFFFFFFFFFFF4E
:104AD000FFFFFFFFFFFFFFFFFFFFFFFFFF00FBFFE9
:104AE000FFFFFFFFFFFFFFFFFFFFFFFFFFFFFFFFD6
:104AF000FFFFFFFFFFFFFFFFFFFF7F3F3F1C0E1683
:104B00001606080FDF3F7FFFFFFFFFFFFFFFFFFFDE
:104B1000FFFFFFFFFFFFFFFFFFFFFFFFFFFFFEFDA8
:104B2000FFFFFFFFFFFFFFFFFFFFFFFFFFFFFFFF95
:104B3000FFFF7F3F1F1F0F83C1E0F0F8F0FCE00094
:104B40000000000220000000033FFFFFFFFFFFFF07
:104B5000FFFFFFFFFFFFFFFFFFFFFFFFFFFFFFFF65
:104B6000FFFFFFFFFFFFFFFFFFFFFFFFFFFFFFFF55
:104B7000FFFFFFE0C0C0C0C1E1FFFF7F3F0F0301A7
:104B800000008000000000E0F8F00007FFFFFFFFDA
:104B9000FFFFFFFFFFFFFFFFFFFFFFFFFFFFFFFF25
:104BA000FFFFFFFFFFFFFFFFFFFFFFFFFFFFFFFF15
:104BB000FFFFFFFFFFFFFFFFFF9F03000000F0F874
:104BC000FCFFF7C000000E7FFFFFFEFEFFFFFFFFB0
:104BD000FFFFFFFFFFFFFFFFFFFFFFFFFFFFFFFFE5
:104BE000FFFFFFFFFFFFFFFFFFFFFFFFFFFFFFFFD5
:104BF000FFFFFFFFFFFFFFFFFFFFFFFCF0808003D1
:104C00000F3FFFFFFEC000007FFFFFFFFFFFFFFF22
:104C1000FFFFFFFFFFFFFFFFFFFFFFFFFFFFFFFFA4
:104C2000FFFFFFFFFFFFFFFFFFFFFFFFFFFFFFFF94
:104C3000FFFFFFFFFFFFFFFFFFFFFFFFF3F3C1E0F9
:104C4000C0E0F0FBFFFFF0F0F0FFFFFFFFFFFFFF12
:104C5000FFFFFFFFFFFFFFFFFFFFFFFFFFFFFFFF64
:104C6000FFFFFFFFFFFFFFFFFFFFFFFFFFFFFFFF54
:104C7000FFFFFFFFFFFFFFFFFFFFFFFFFFFFFFFF44
:104C8000FFFFFFFFFFFFFFFFFFFFFFFFFFFFFFFF34
:104C9000FFFFFFFFFFFFFFFFFFFFFFFFFF00FEFF24
:104CA000FFFFFFFFFFFFFFFFFFFFFFFFFFFFFFFF14
:104CB000FFFFFFFFFFFFFFFFFFFFFFFFFFFFFFFF04
:104CC000FFFFFFFFFFFFFFFFFFFFFFFFFFFFFFFFF4
:104CD000FFFFFFFFFFFFFFFFFFFFFFFFFF00FB9F47
:104CE000FFFFFFFFFFFFFFFFFFFFFFFFFFFFFFFFD4
:104CF000FFFFFFFFFFFFFFFFFFFFFFFFFFEF87C388
:104D0000C3C34180F7FFFFFFFFFFFFFFFFFFFFFF70
:104D1000FFFFFFFFFFFFFFFFFFFFFFFFFFFFFEFDA6
:104D2000FFFFFFFFFFFFFFFFFFFFFFFFFFFFFFFF93
:104D3000FFFFFFFFFFFFFFFFFF7F0F0703190101C9
:104D400002010000E11F070F7FFFFFFFFFFFFFFFD2
:104D5000FFFFFFFFFFFFFFFFFFFFFFFFFFFFFFFF63
:104D6000FFFFFFFFFFFFFFFFFFFFFFFFFFFFFFFF53
:104D7000FFFFFFFFFFFF7F1F0780C0F07E2F0C00AB
:104D80000000000001000000000FFFFFFFFFFFFF19
:104D9000FFFFFFFFFFFFFFFFFFFFFFFFFFFFFFFF23
:104DA000FFFFFFFFFFFFFFFFFFFFFFFFFFFFFFFF13
:104DB000FFFFFFFFFFFF8400070303010000C0E0C7
:104DC000F8FCE0000000BE0000FCFFFFFFFFFFFF5B
:104DD000FFFFFFFFFFFFFFFFFFFFFFFFFFFFFFFFE3
:104DE000FFFFFFFFFFFFFFFFFFFFFFFFFFFFFFFFD3
:104DF000FFFFFFFFFFFFFFFFFFFEFCF8F0E0C10336
:104E0000070F3F200000FFFEFFFFFFFFFFFFFFFF38
:104E1000FFFFFFFFFFFFFFFFFFFFFFFFFFFFFFFFA2
:104E2000FFFFFFFFFFFFFFFFFFFFFFFFFFFFFFFF92
:104E3000FFFFFFFFFFFFFFFFFFFFFFFFFFFBF3F39E
:104E4000C1E0004040E0FFFFFFFFFFFFFFFFFFFF6B
:104E5000FFFFFFFFFFFFFFFFFFFFFFFFFFFFFFFF62
:104E6000FFFFFFFFFFFFFFFFFFFFFFFFFFFFFFFF52
:104E7000FFFFFFFFFFFFFFFFFFFFFFFFFFFFFFFF42
:104E8000FFFFFFFFFFFFFFFFFFFFFFFFFFFFFFFF32
:104E9000FFFFFFFFFFFFFFFFFFFFFFFFFF00FEFF22
:104EA000FFFFFFFFFFFFFFFFFFFFFFFFFFFFFFFF12
:104EB000FFFFFFFFFFFFFFFFFFFFFFFFFFFFFFFF02
:104EC000FFFFFFFFFFFFFFFFFFFFFFFFFFFFFFFFF2
:104ED000FFFFFFFFFFFFFFFFFFFFFFFFFF00FB9F45
:104EE000FFFFFFFFFFFFFFFFFFFFFFFFFFFFFFFFD2
:104EF000FFFFFFFFFFFFFFFFFFFFFFFFFFFFFFFFC2
:104F0000FF7F3F3F3F7FFFFFFFFFFFFFFFFFFFFFF1
:104F1000FFFFFFFFFFFFFFFFFFFFFFFFFFFFFEFDA4
:104F2000FFFFFFFFFFFFFFFFFFFFFFFFFFFFFFFF91
:104F3000FFFFFFFFFFFFFFFFFFFFFFFFFF1F1F4FF1
:104F40000408081800001DFFFFFFFFFFFFFFFFFF21
:104F5000FFFFFFFFFFFFFFFFFFFFFFFFFFFFFFFF61
:104F6000FFFFFFFFFFFFFFFFFFFFFFFFFFFFFFFF51
:104F7000FFFFFFFFFFFFFFFFFFFFFFFF0F0000002E
:104F80000000000000A00801F1FFFFFFFFFFFFFF8E
:104F9000FFFFFFFFFFFFFFFFFFFFFFFFFFFFFFFF21
:104FA000FFFFFFFFFFFFFFFFFFFFFFFFFFFFFFFF11
:104FB000FFFFFFFFFFFFFFFFFFFF0F0000000010DC
:104FC000000000F0FCFFC00007FFFFFFFFFFFFFF36
:104FD000FFFFFFFFFFFFFFFFFFFFFFFFFFFFFFFFE1
:104FE000FFFFFFFFFFFFFFFFFFFFFFFFFFFFFFFFD1
:104FF000FFFFFFFFFFFFFFFFFFFF808080000C1817
:10500000000000070303030080CFFFFFFFFFFFFF47
:10501000FFFFFFFFFFFFFFFFFFFFFFFFFFFFFFFFA0
:10502000FFFFFFFFFFFFFFFFFFFFFFFFFFFFFFFF90
:10503000FFFFFFFFFFFFFFFFFFFFFFFFFFF3F3F0A7
:1050400040000000FFFFFFFFFFFFFFFFFFFFFFFF2C
:10505000FFFFFFFFFFFFFFFFFFFFFFFFFFFFFFFF60
:10506000FFFFFFFFFFFFFFFFFFFFFFFFFFFFFFFF50
:10507000FFFFFFFFFFFFFFFFFFFFFFFFFFFFFFFF40
:10508000FFFFFFFFFFFFFFFFFFFFFFFFFFFFFFFF30
:10509000FFFFFFFFFFFFFFFFFFFFFFFFFF00FEFE21
:1050A000FFFFFFFFFFFFFFFFFFFFFFFFFFFFFFFF10
:1050B000FFFFFFFFFFFFFFFFFFFFFFFFFFFFFFFF00
:1050C000FFFFFFFFFFFFFFFFFFFFFFFFFFFFFFFFF0
:1050D000FFFFFFFFFFFFFFFFFFFFFFFFFF00FB9F43
:1050E000FFFFFFFFFFFFFFFFFFFFFFFFFFFFFFFFD0
:1050F000FFFFFFFFFFFFFFFFFFFFFFFFFFFFFFFFC0
:10510000FFFF0F070307078FFFFFFFFFFFFFFFFFF3
:10511000FFFFFFFFFFFFFFFFFFFFFFFFFFFFFEFDA2
:10512000FFFFFFFFFFFFFFFFFFFFFFFFFFFFFFFF8F
:10513000FFFFFFFFFFFFFFFFFFFFFFFF3F03010137
:10514000040000030100811B071FFFFFFFFFFFFF9B
:10515000FFFFFFFFFFFFFFFFFFFFFFFFFFFFFFFF5F
:10516000FFFFFFFFFFFFFFFFFFFFFFFFFFFFFFFF4F
:10517000FFFFFFFFFFFFFFFFFFFF0C00000000002D
:1051800000000000F8FEFEFCF0F0C3C78F3F7FFF79
:10519000FFFFFFFFFFFFFFFFFFFFFFFFFFFFFFFF1F
:1051A000FFFFFFFFFFFFFFFFFFFFFFFFFFFFFFFF0F
:1051B000FFFFFFFFFFFFFFFFFFF300000000F8F815
:1051C0000000003CFFFFFFFFFFC38101018080FF63
:1051D000FFFFFFFFFFFFFFFFFFFFFFFFFFFFFFFFDF
:1051E000FFFFFFFFFFFFFFFFFFFFFFFFFFFFFFFFCF
:1051F000FFFFFFFFFFFFFFFFFFFFF0E0C080070F93
:105200000F000000FFFFFFFFFFFFFFFFFFFFFFFF9B
:10521000FFFFFFFFFFFFFFFFFFFFFFFFFFFFFFFF9E
:10522000FFFFFFFFFFFFFFFFFFFFFFFFFFFFFFFF8E
:10523000FFFFFFFFFFFFFFFFFFFFFFFFFFF1E8FCA6
:10524000DF0E0000FFFFFFFFFFFFFFFFFFFFFFFF7D
:10525000FFFFFFFFFFFFFFFFFFFFFFFFFFFFFFFF5E
:10526000FFFFFFFFFFFFFFFFFFFFFFFFFFFFFFFF4E
:10527000FFFFFFFFFFFFFFFFFFFFFFFFFFFFFFFF3E
:10528000FFFFFFFFFFFFFFFFFFFFFFFFFFFFFFFF2E
:10529000FFFFFFFFFFFFFFFFFFFFFFFFFF01FEFE1E
:1052A000FFFFFFFFFFFFFFFFFFFFFFFFFFFFFFFF0E
:1052B000FFFFFFFFFFFFFFFFFFFFFFFFFFFFFFFFFE
:1052C000FFFFFFFFFFFFFFFFFFFFFFFFFFFFFFFFEE
:1052D000FFFFFFFFFFFFFFFFFFFFFFFFFF00FB0FD1
:1052E000FFFFFFFFFFFFFFFFFFFFFFFFFFFFFFFFCE
:1052F000FFFFFFFFFFFFFFFFFFFFFFFFFF7F7FBFFE
:1053000031006060E020F079FFFFFFFFFFFFFFFF4B
:10531000FFFFFFFFFFFFFFFFFFFFFFFFFFFEFCFDA3
:10532000FFFFFFFFFFFFFFFFFFFFFFFFFFFFFFFF8D
:10533000FFFFFFFFFFFFFF7F1F0F070100000001BE
:105340000000008080C0E7E0C0C187878F8F1F1FEB
:105350003F7F7FFFFFFFFFFFFFFFFFFFFFFFFFFF1D
:10536000FFFFFFFFFFFFFFFFFFFFFFFFFFFFFFFF4D
:10537000FFFFFF1F0FE1F0F8FC000000000000003D
:105380000000023FFFFFFFFFFFFFFFFFFF8701005D
:10539000000280C0FFFFFFFFFFFFFFFFFFFFFFFFD7
:1053A000FFFFFFFFFFFFFFFFFFFFFFFFFFFFFFFF0D
:1053B000FFFBFFFFFFFFFFFFFFF800000000FFFC07
:1053C000F0C0000001077FFFFFFFFFFFFFFFFFFFAF
:1053D000FFFFFFFFFFFFFFFFFFFFFFFFFFFFFFFFDD
:1053E000FFFFFFFFFFFFFFFFFFFFFFFFFFFFFFFFCD
:1053F000FFFFFFFFFFFFFFFFFF030000F0FEFFFFC7
:10540000FFFF0F0000E0FEFFFFFFFFFFFFFFFFFFBA
:10541000FFFFFFFFFFFFFFFFFFFFFFFFFFFFFFFF9C
:10542000FFFFFFFFFFFFFFFFFFFFFFFFFFFFFFFF8C
:10543000FFFFFFFFFFFFFFFF8380C8FEFFFFFFFFAF
:10544000FFFFF8F0E0E3E7EFFFFFFFFFFFFFFFFFE5
:10545000FFFFFFFFFFFFFFFFFFFFFFFFFFFFFFFF5C
:10546000FFFFFFFFFFFFFFFFFFFFFFFFFFFFFFFF4C
:10547000FFFFFFFFFFFFFFFFFFFFFFFFFFFFFFFF3C
:10548000FFFFFFFFFFFFFFFFFFFFFFFFFFFFFFFF2C
:10549000FFFFFFFFFFFFFFFFFFFFFFFFFF01FFFD1C
:1054A000FFFFFFFFFFFFFFFFFFFFFFFFFFFFFFFF0C
:1054B000FFFFFFFFFFFFFFFFFFFFFFFFFFFFFFFFFC
:1054C000FFFFFFFFFFFFFFFFFFFFFFFFFFFFFFFFEC
:1054D000FFFFFFFFFFFFFFFFFFFFFFFFFFA2FB8FAD
:1054E000FFFFFFFFFFFFFFFFFFFFFFFFFFFFFFFFCC
:1054F000FFFFFFFFFFFFFFFFFFFFFFFF0F07070398
:105500000307C7FFFFFFFFFFFFFFFFFFFFFFFFFFD7
:10551000FFFFFFFFFFFFFFFFFFFFFFFFFFFEFDFDA0
:10552000FFFFFFFFFFFFFFFFFFFFFFFFFFFFFFFF8B
:10553000FFFFFFFFFFFFFFFF3F0F030139000000E8
:10554000000000410F070FFFFFFFFFFFFFFFFFFFFE
:10555000FFFFFFFFFFFFFFFFFFFFFFFFFFFFFFFF5B
:10556000FFFFFFFFFFFFFFFFFFFFFFFFFFFFFFFF4B
:10557000FFFFFFFFFFFF1F00008080000000000012
:1055800000000000000008FFFFFFFFFFFFFFFFFF1C
:10559000FFFFFFFFFFFFFFFFFFFFFFFFFFFFFFFF1B
:1055A000FFFFFFFFFFFFFFFFFFFFFFFFFFFFFFFF0B
:1055B000FFFFFFFFFFFFF8E0F8FFFF30000000FEF5
:1055C000F8E08000000000FFFFFFFFFFFFFFFFFF8C
:1055D000FFFFFFFFFFFFFFFFFFFFFFFFFFFFFFFFDB
:1055E000FFFFFFFFFFFFFFFFFFFFFFFFFFFFFFFFCB
:1055F000FFFFFFFFFFFFFEFFFFFF070000E0FFFFD1
:10560000FF3F00000080C0E0FFFFFFFFFFFFFFFF44
:10561000FFFFFFFFFFFFFFFFFFFFFFFFFFFFFFFF9A
:10562000FFFFFFFFFFFFFFFFFFFFFFFFFFFFFFFF8A
:10563000FFFFFFFFFFFFFFFFFFFF0C00003F7FFBAF
:105640008080C0C0E3E7E7FFFFFFFFFFFFFFFFFF32
:10565000FFFFFFFFFFFFFFFFFFFFFFFFFFFFFFFF5A
:10566000FFFFFFFFFFFFFFFFFFFFFFFFFFFFFFFF4A
:10567000FFFFFFFFFFFFFFFFFFFFFFFFFFFFFFFF3A
:10568000FFFFFFFFFFFFFFFFFFFFFFFFFFFFFFFF2A
:10569000FFFFFFFFFFFFFFFFFFFFFFFFFF01FFFD1A
:1056A000FFFFFFFFFFFFFFFFFFFFFFFFFFFFFFFF0A
:1056B000FFFFFFFFFFFFFFFFFFFFFFFFFFFFFFFFFA
:1056C000FFFFFFFFFFFFFFFFFFFFFFFFFFFFFFFFEA
:1056D000FFFFFFFFFFFFFFFFFFFFFFFFFFA2FB8FAB
:1056E000FFFFFFFFFFFFFFFFFFFFFFFFFFFFFFFFCA
:1056F000FFFFFFFFFFFFFFFFFFFF3F1F0F0F0F0F1A
:105700001FFFFFFFFFFFFFFFFFFFFFFFFFFFFFFF89
:10571000FFFFFFFFFFFFFFFFFFFFFFFFFFFEFDFD9E
:10572000FFFFFFFFFFFFFFFFFFFFFFFFFFFFFFFF89
:10573000FFFFFFFFFFFFFFFF7F1F0F740000000050
:105740000003831F0F1FFFFFFFFFFFFFFFFFFFFF90
:10575000FFFFFFFFFFFFFFFFFFFFFFFFFFFFFFFF59
:10576000FFFFFFFFFFFFFFFFFFFFFFFFFFFFFFFF49
:10577000FFFFFFFFFFFFFF3F0000000007000000EA
:10578000000001000000FFFFFFFFFFFFFFFFFFFF22
:10579000FFFFFFFFFFFFFFFFFFFFFFFFFFFFFFFF19
:1057A000FFFFFFFFFFFFFFFFFFFFFFFFFFFFFFFF09
:1057B000FFFFFFFFFFFFFFF00080FCF0000000F0A4
:1057C000F8C0000000003FFFFFFFFFFFFFFFFFFFEB
:1057D000FFFFFFFFFFFFFFFFFFFFFFFFFFFFFFFFD9
:1057E000FFFFFFFFFFFFFFFFFFFFFFFFFFFFFFFFC9
:1057F000FFFFFFFFFFFFFFFFFCFFFF830000000F25
:105800000F0F1F000080C0E3FFFFFFFFFFFFFFFF40
:10581000FFFFFFFFFFFFFFFFFFFFFFFFFFFFFFFF98
:10582000FFFFFFFFFFFFFFFFFFFFFFFFFFFFFFFF88
:10583000FFFFFFFFFFFFFFFFFFFFFF0F00007EF8EE
:105840008080C080E3E7E7FFFFFFFFFFFFFFFFFF70
:10585000FFFFFFFFFFFFFFFFFFFFFFFFFFFFFFFF58
:10586000FFFFFFFFFFFFFFFFFFFFFFFFFFFFFFFF48
:10587000FFFFFFFFFFFFFFFFFFFFFFFFFFFFFFFF38
:10588000FFFFFFFFFFFFFFFFFFFFFFFFFFFFFFFF28
:10589000FFFFFFFFFFFFFFFFFFFFFFFFFF01FFFD18
:1058A000FFFFFFFFFFFFFFFFFFFFFFFFFFFFFFFF08
:1058B000FFFFFFFFFFFFFFFFFFFFFFFFFFFFFFFFF8
:1058C000FFFFFFFFFFFFFFFFFFFFFFFFFFFFFFFFE8
:1058D000FFFFFFFFFFFFFFFFFFFFFFFFFFA2FB8FA9
:1058E000FFFFFFFFFFFFFFFFFFFFFFFFFFFFFFFFC8
:1058F000FFFFFFFFFFFFFFFFFFFF7F7F7FFFFFFF38
:10590000FFFFFFFFFFFFFFFFFFFFFFFFFFFFFFFFA7
:10591000FFFFFFFFFFFFFFFFFFFFFFFFFFFEFDFD9C
:10592000FFFFFFFFFFFFFFFFFFFFFFFFFFFFFFFF87
:10593000FFFFFFFFFFFFFFFFFFE000000000010F80
:105940000F3F1F7FFFFFFFFFFFFFFFFFFFFFFFFF77
:10595000FFFFFFFFFFFFFFFFFFFFFFFFFFFFFFFF57
:10596000FFFFFFFFFFFFFFFFFFFFFFFFFFFFFFFF47
:10597000FFFFFFFFFFFFFFFF01010CC00000000061
:1059800000000000033FFFFFFFFFFFFFFFFFFFFFDF
:10599000FFFFFFFFFFFFFFFFFFFFFFFFFFFFFFFF17
:1059A000FFFFFFFFFFFFFFFFFFFFFFFFFFFFFFFF07
:1059B000FFFFFFFFFF7F0F01C0F0FCFFE0002000B2
:1059C0000080000000011FFFFFFFFFFFFFFFFFFF40
:1059D000FFFFFFFFFFFFFFFFFFFFFFFFFFFFFFFFD7
:1059E000FFFFFFFFFFFFFFFFFFFFFFFFFFFFFFFFC7
:1059F000FFFFFFFFC380808081C1EFFF010000F047
:105A0000FE7F1C2000000003FFFFFFFFFFFFFFFFE2
:105A1000FFFFFFFFFFFFFFFFFFFFFFFFFFFFFFFF96
:105A2000FFFFFFFFFFFFFFFFFFFFFFFFFFFFFFFF86
:105A3000FFFFFFFFFFFFFFFFFFFFFF0F00007EFFE5
:105A4000FEFCC880E0E2E6FEFFFFFFFFFFFFFFFF76
:105A5000FFFFFFFFFFFFFFFFFFFFFFFFFFFFFFFF56
:105A6000FFFFFFFFFFFFFFFFFFFFFFFFFFFFFFFF46
:105A7000FFFFFFFFFFFFFFFFFFFFFFFFFFFFFFFF36
:105A8000FFFFFFFFFFFFFFFFFFFFFFFFFFFFFFFF26
:105A9000FFFFFFFFFFFFFFFFFFFFFFFFFF01FFFD16
:105AA000FFFFFFFFFFFFFFFFFFFFFFFFFFFFFFFF06
:105AB000FFFFFFFFFFFFFFFFFFFFFFFFFFFFFFFFF6
:105AC000FFFFFFFFFFFFFFFFFFFFFFFFFFFFFFFFE6
:105AD000FFFFFFFFFFFFFFFFFFFFFFFFFFA2FB8FA7
